{
  "_format": "hh-sol-artifact-1",
  "contractName": "MPER",
  "sourceName": "contracts/MPER.sol",
  "abi": [
    {
      "inputs": [
        {
          "internalType": "address",
          "name": "spender",
          "type": "address"
        },
        {
          "internalType": "uint256",
          "name": "allowance",
          "type": "uint256"
        },
        {
          "internalType": "uint256",
          "name": "needed",
          "type": "uint256"
        }
      ],
      "name": "ERC20InsufficientAllowance",
      "type": "error"
    },
    {
      "inputs": [
        {
          "internalType": "address",
          "name": "sender",
          "type": "address"
        },
        {
          "internalType": "uint256",
          "name": "balance",
          "type": "uint256"
        },
        {
          "internalType": "uint256",
          "name": "needed",
          "type": "uint256"
        }
      ],
      "name": "ERC20InsufficientBalance",
      "type": "error"
    },
    {
      "inputs": [
        {
          "internalType": "address",
          "name": "approver",
          "type": "address"
        }
      ],
      "name": "ERC20InvalidApprover",
      "type": "error"
    },
    {
      "inputs": [
        {
          "internalType": "address",
          "name": "receiver",
          "type": "address"
        }
      ],
      "name": "ERC20InvalidReceiver",
      "type": "error"
    },
    {
      "inputs": [
        {
          "internalType": "address",
          "name": "sender",
          "type": "address"
        }
      ],
      "name": "ERC20InvalidSender",
      "type": "error"
    },
    {
      "inputs": [
        {
          "internalType": "address",
          "name": "spender",
          "type": "address"
        }
      ],
      "name": "ERC20InvalidSpender",
      "type": "error"
    },
    {
      "inputs": [],
      "name": "InvalidInitialization",
      "type": "error"
    },
    {
      "inputs": [],
      "name": "NotInitializing",
      "type": "error"
    },
    {
      "anonymous": false,
      "inputs": [
        {
          "indexed": true,
          "internalType": "address",
          "name": "owner",
          "type": "address"
        },
        {
          "indexed": true,
          "internalType": "address",
          "name": "spender",
          "type": "address"
        },
        {
          "indexed": false,
          "internalType": "uint256",
          "name": "value",
          "type": "uint256"
        }
      ],
      "name": "Approval",
      "type": "event"
    },
    {
      "anonymous": false,
      "inputs": [
        {
          "indexed": true,
          "internalType": "address",
          "name": "from",
          "type": "address"
        },
        {
          "indexed": false,
          "internalType": "uint256",
          "name": "value",
          "type": "uint256"
        }
      ],
      "name": "Burn",
      "type": "event"
    },
    {
      "anonymous": false,
      "inputs": [
        {
          "indexed": false,
          "internalType": "string",
          "name": "hash",
          "type": "string"
        },
        {
          "indexed": true,
          "internalType": "address",
          "name": "sender",
          "type": "address"
        }
      ],
      "name": "HashStored",
      "type": "event"
    },
    {
      "anonymous": false,
      "inputs": [
        {
          "indexed": false,
          "internalType": "uint64",
          "name": "version",
          "type": "uint64"
        }
      ],
      "name": "Initialized",
      "type": "event"
    },
    {
      "anonymous": false,
      "inputs": [
        {
          "indexed": true,
          "internalType": "address",
          "name": "to",
          "type": "address"
        },
        {
          "indexed": false,
          "internalType": "uint256",
          "name": "value",
          "type": "uint256"
        }
      ],
      "name": "Mint",
      "type": "event"
    },
    {
      "anonymous": false,
      "inputs": [
        {
          "indexed": false,
          "internalType": "string",
          "name": "content",
          "type": "string"
        }
      ],
      "name": "ReviewStored",
      "type": "event"
    },
    {
      "anonymous": false,
      "inputs": [
        {
          "indexed": true,
          "internalType": "address",
          "name": "from",
          "type": "address"
        },
        {
          "indexed": true,
          "internalType": "address",
          "name": "to",
          "type": "address"
        },
        {
          "indexed": false,
          "internalType": "uint256",
          "name": "value",
          "type": "uint256"
        }
      ],
      "name": "Transfer",
      "type": "event"
    },
    {
      "anonymous": false,
      "inputs": [
        {
          "indexed": true,
          "internalType": "address",
          "name": "from",
          "type": "address"
        },
        {
          "indexed": true,
          "internalType": "address",
          "name": "to",
          "type": "address"
        },
        {
          "indexed": false,
          "internalType": "uint256",
          "name": "value",
          "type": "uint256"
        }
      ],
      "name": "TransferWithHash",
      "type": "event"
    },
    {
      "inputs": [
        {
          "internalType": "address",
          "name": "owner",
          "type": "address"
        },
        {
          "internalType": "address",
          "name": "spender",
          "type": "address"
        }
      ],
      "name": "allowance",
      "outputs": [
        {
          "internalType": "uint256",
          "name": "",
          "type": "uint256"
        }
      ],
      "stateMutability": "view",
      "type": "function"
    },
    {
      "inputs": [
        {
          "internalType": "address",
          "name": "spender",
          "type": "address"
        },
        {
          "internalType": "uint256",
          "name": "value",
          "type": "uint256"
        }
      ],
      "name": "approve",
      "outputs": [
        {
          "internalType": "bool",
          "name": "",
          "type": "bool"
        }
      ],
      "stateMutability": "nonpayable",
      "type": "function"
    },
    {
      "inputs": [
        {
          "internalType": "address",
          "name": "account",
          "type": "address"
        }
      ],
      "name": "balanceOf",
      "outputs": [
        {
          "internalType": "uint256",
          "name": "",
          "type": "uint256"
        }
      ],
      "stateMutability": "view",
      "type": "function"
    },
    {
      "inputs": [
        {
          "internalType": "address",
          "name": "account",
          "type": "address"
        },
        {
          "internalType": "uint256",
          "name": "amount",
          "type": "uint256"
        }
      ],
      "name": "burnFrom",
      "outputs": [],
      "stateMutability": "nonpayable",
      "type": "function"
    },
    {
      "inputs": [],
      "name": "decimals",
      "outputs": [
        {
          "internalType": "uint8",
          "name": "",
          "type": "uint8"
        }
      ],
      "stateMutability": "view",
      "type": "function"
    },
    {
      "inputs": [
        {
          "internalType": "string",
          "name": "hash",
          "type": "string"
        }
      ],
      "name": "getRecipientByHash",
      "outputs": [
        {
          "internalType": "address",
          "name": "",
          "type": "address"
        }
      ],
      "stateMutability": "view",
      "type": "function"
    },
    {
      "inputs": [
        {
          "internalType": "string",
          "name": "content",
          "type": "string"
        }
      ],
      "name": "getReviewByHash",
      "outputs": [
        {
          "internalType": "address",
          "name": "",
          "type": "address"
        }
      ],
      "stateMutability": "view",
      "type": "function"
    },
    {
      "inputs": [
        {
          "internalType": "uint256",
          "name": "initialSupply",
          "type": "uint256"
        }
      ],
      "name": "initialize",
      "outputs": [],
      "stateMutability": "nonpayable",
      "type": "function"
    },
    {
      "inputs": [
        {
          "internalType": "address[]",
          "name": "toAddresses",
          "type": "address[]"
        },
        {
          "internalType": "uint256",
          "name": "amount",
          "type": "uint256"
        }
      ],
      "name": "mint",
      "outputs": [
        {
          "internalType": "bool",
          "name": "",
          "type": "bool"
        }
      ],
      "stateMutability": "nonpayable",
      "type": "function"
    },
    {
      "inputs": [],
      "name": "name",
      "outputs": [
        {
          "internalType": "string",
          "name": "",
          "type": "string"
        }
      ],
      "stateMutability": "view",
      "type": "function"
    },
    {
      "inputs": [
        {
          "internalType": "string",
          "name": "hash",
          "type": "string"
        }
      ],
      "name": "storeHash",
      "outputs": [],
      "stateMutability": "nonpayable",
      "type": "function"
    },
    {
      "inputs": [
        {
          "internalType": "string",
          "name": "content",
          "type": "string"
        }
      ],
      "name": "storeReview",
      "outputs": [],
      "stateMutability": "nonpayable",
      "type": "function"
    },
    {
      "inputs": [],
      "name": "symbol",
      "outputs": [
        {
          "internalType": "string",
          "name": "",
          "type": "string"
        }
      ],
      "stateMutability": "view",
      "type": "function"
    },
    {
      "inputs": [],
      "name": "totalSupply",
      "outputs": [
        {
          "internalType": "uint256",
          "name": "",
          "type": "uint256"
        }
      ],
      "stateMutability": "view",
      "type": "function"
    },
    {
      "inputs": [
        {
          "internalType": "address",
          "name": "recipient",
          "type": "address"
        },
        {
          "internalType": "uint256",
          "name": "amount",
          "type": "uint256"
        }
      ],
      "name": "transfer",
      "outputs": [
        {
          "internalType": "bool",
          "name": "",
          "type": "bool"
        }
      ],
      "stateMutability": "nonpayable",
      "type": "function"
    },
    {
      "inputs": [
        {
          "internalType": "address",
          "name": "from",
          "type": "address"
        },
        {
          "internalType": "address",
          "name": "to",
          "type": "address"
        },
        {
          "internalType": "uint256",
          "name": "value",
          "type": "uint256"
        }
      ],
      "name": "transferFrom",
      "outputs": [
        {
          "internalType": "bool",
          "name": "",
          "type": "bool"
        }
      ],
      "stateMutability": "nonpayable",
      "type": "function"
    }
  ],
  "bytecode": "0x608060405234801561001057600080fd5b50612071806100206000396000f3fe608060405234801561001057600080fd5b50600436106101005760003560e01c8063882514f211610097578063db83688111610066578063db836881146102c1578063dd62ed3e146102f1578063ea66696c14610321578063fe4b84df1461035157610100565b8063882514f2146102275780638c23b0811461025757806395d89b4114610273578063a9059cbb1461029157610100565b8063313ce567116100d3578063313ce567146101a157806370a08231146101bf57806371dc61cb146101ef57806379cc67901461020b57610100565b806306fdde0314610105578063095ea7b31461012357806318160ddd1461015357806323b872dd14610171575b600080fd5b61010d61036d565b60405161011a91906115a5565b60405180910390f35b61013d6004803603810190610138919061166f565b61040e565b60405161014a91906116ca565b60405180910390f35b61015b610431565b60405161016891906116f4565b60405180910390f35b61018b6004803603810190610186919061170f565b610449565b60405161019891906116ca565b60405180910390f35b6101a9610478565b6040516101b6919061177e565b60405180910390f35b6101d960048036038101906101d49190611799565b610481565b6040516101e691906116f4565b60405180910390f35b610209600480360381019061020491906118fb565b6104d8565b005b6102256004803603810190610220919061166f565b6106a7565b005b610241600480360381019061023c91906118fb565b610703565b60405161024e9190611953565b60405180910390f35b610271600480360381019061026c91906118fb565b61074a565b005b61027b6107e1565b60405161028891906115a5565b60405180910390f35b6102ab60048036038101906102a6919061166f565b610882565b6040516102b891906116ca565b60405180910390f35b6102db60048036038101906102d691906118fb565b61096c565b6040516102e89190611953565b60405180910390f35b61030b6004803603810190610306919061196e565b6109b4565b60405161031891906116f4565b60405180910390f35b61033b60048036038101906103369190611a76565b610a49565b60405161034891906116ca565b60405180910390f35b61036b60048036038101906103669190611ad2565b610afe565b005b60606000610379610d0c565b905080600301805461038a90611b2e565b80601f01602080910402602001604051908101604052809291908181526020018280546103b690611b2e565b80156104035780601f106103d857610100808354040283529160200191610403565b820191906000526020600020905b8154815290600101906020018083116103e657829003601f168201915b505050505091505090565b600080610419610d34565b9050610426818585610d3c565b600191505092915050565b60008061043c610d0c565b9050806002015491505090565b600080610454610d34565b9050610461858285610d4e565b61046c858585610de3565b60019150509392505050565b60006012905090565b60008061048c610d0c565b90508060000160008473ffffffffffffffffffffffffffffffffffffffff1673ffffffffffffffffffffffffffffffffffffffff16815260200190815260200160002054915050919050565b600073ffffffffffffffffffffffffffffffffffffffff166000826040516105009190611b9b565b908152602001604051809103902060009054906101000a900473ffffffffffffffffffffffffffffffffffffffff1673ffffffffffffffffffffffffffffffffffffffff1614806105ba57503373ffffffffffffffffffffffffffffffffffffffff166000826040516105739190611b9b565b908152602001604051809103902060009054906101000a900473ffffffffffffffffffffffffffffffffffffffff1673ffffffffffffffffffffffffffffffffffffffff16145b6105f9576040517f08c379a00000000000000000000000000000000000000000000000000000000081526004016105f090611bfe565b60405180910390fd5b3360008260405161060a9190611b9b565b908152602001604051809103902060006101000a81548173ffffffffffffffffffffffffffffffffffffffff021916908373ffffffffffffffffffffffffffffffffffffffff1602179055503373ffffffffffffffffffffffffffffffffffffffff167f86fe26a4c2c4da61049e3786668239929ce2f0465c18b8c655ad4cd126df9ea98260405161069c91906115a5565b60405180910390a250565b6106b18282610ed7565b8173ffffffffffffffffffffffffffffffffffffffff167fcc16f5dbb4873280815c1ee09dbd06736cffcc184412cf7a71a0fdb75d397ca5826040516106f791906116f4565b60405180910390a25050565b600080826040516107149190611b9b565b908152602001604051809103902060009054906101000a900473ffffffffffffffffffffffffffffffffffffffff169050919050565b3360018260405161075b9190611b9b565b908152602001604051809103902060006101000a81548173ffffffffffffffffffffffffffffffffffffffff021916908373ffffffffffffffffffffffffffffffffffffffff1602179055507fcb08fdcb10363722336d254fcc0aa3a2f24fe63245fdbb1fdd1a1064d8c75ea2816040516107d691906115a5565b60405180910390a150565b606060006107ed610d0c565b90508060040180546107fe90611b2e565b80601f016020809104026020016040519081016040528092919081815260200182805461082a90611b2e565b80156108775780601f1061084c57610100808354040283529160200191610877565b820191906000526020600020905b81548152906001019060200180831161085a57829003601f168201915b505050505091505090565b60008073ffffffffffffffffffffffffffffffffffffffff168373ffffffffffffffffffffffffffffffffffffffff16036108f2576040517f08c379a00000000000000000000000000000000000000000000000000000000081526004016108e990611c6a565b60405180910390fd5b6108fc8383610f59565b508273ffffffffffffffffffffffffffffffffffffffff163373ffffffffffffffffffffffffffffffffffffffff167f6b525005bc93437a219538e3a08ce19ff9b23abacb849261956e3eedd93b16db8460405161095a91906116f4565b60405180910390a36001905092915050565b600060018260405161097e9190611b9b565b908152602001604051809103902060009054906101000a900473ffffffffffffffffffffffffffffffffffffffff169050919050565b6000806109bf610d0c565b90508060010160008573ffffffffffffffffffffffffffffffffffffffff1673ffffffffffffffffffffffffffffffffffffffff16815260200190815260200160002060008473ffffffffffffffffffffffffffffffffffffffff1673ffffffffffffffffffffffffffffffffffffffff1681526020019081526020016000205491505092915050565b600080600090505b8351811015610af357610a7e848281518110610a7057610a6f611c8a565b5b602002602001015184610f7c565b838181518110610a9157610a90611c8a565b5b602002602001015173ffffffffffffffffffffffffffffffffffffffff167f0f6798a560793a54c3bcfe86a93cde1e73087d944c0ea20544137d412139688584604051610ade91906116f4565b60405180910390a28080600101915050610a51565b506001905092915050565b6000610b08610ffe565b905060008160000160089054906101000a900460ff1615905060008260000160009054906101000a900467ffffffffffffffff1690506000808267ffffffffffffffff16148015610b565750825b9050600060018367ffffffffffffffff16148015610b8b575060003073ffffffffffffffffffffffffffffffffffffffff163b145b905081158015610b99575080155b15610bd0576040517ff92ee8a900000000000000000000000000000000000000000000000000000000815260040160405180910390fd5b60018560000160006101000a81548167ffffffffffffffff021916908367ffffffffffffffff1602179055508315610c205760018560000160086101000a81548160ff0219169083151502179055505b610c946040518060400160405280600481526020017f4d504552000000000000000000000000000000000000000000000000000000008152506040518060400160405280600481526020017f4d50455200000000000000000000000000000000000000000000000000000000815250611012565b6000861115610ca857610ca73387610f7c565b5b8315610d045760008560000160086101000a81548160ff0219169083151502179055507fc7f505b2f371ae2175ee4913f4499e1f2633a7b5936321eed1cdaeb6115181d26001604051610cfb9190611d12565b60405180910390a15b505050505050565b60007f52c63247e1f47db19d5ce0460030c497f067ca4cebf71ba98eeadabe20bace00905090565b600033905090565b610d498383836001611028565b505050565b6000610d5a84846109b4565b90507fffffffffffffffffffffffffffffffffffffffffffffffffffffffffffffffff811015610ddd5781811015610dcd578281836040517ffb8f41b2000000000000000000000000000000000000000000000000000000008152600401610dc493929190611d2d565b60405180910390fd5b610ddc84848484036000611028565b5b50505050565b600073ffffffffffffffffffffffffffffffffffffffff168373ffffffffffffffffffffffffffffffffffffffff1603610e555760006040517f96c6fd1e000000000000000000000000000000000000000000000000000000008152600401610e4c9190611953565b60405180910390fd5b600073ffffffffffffffffffffffffffffffffffffffff168273ffffffffffffffffffffffffffffffffffffffff1603610ec75760006040517fec442f05000000000000000000000000000000000000000000000000000000008152600401610ebe9190611953565b60405180910390fd5b610ed283838361120e565b505050565b600073ffffffffffffffffffffffffffffffffffffffff168273ffffffffffffffffffffffffffffffffffffffff1603610f495760006040517f96c6fd1e000000000000000000000000000000000000000000000000000000008152600401610f409190611953565b60405180910390fd5b610f558260008361120e565b5050565b600080610f64610d34565b9050610f71818585610de3565b600191505092915050565b600073ffffffffffffffffffffffffffffffffffffffff168273ffffffffffffffffffffffffffffffffffffffff1603610fee5760006040517fec442f05000000000000000000000000000000000000000000000000000000008152600401610fe59190611953565b60405180910390fd5b610ffa6000838361120e565b5050565b60008061100961144d565b90508091505090565b61101a611478565b61102482826114b8565b5050565b6000611032610d0c565b9050600073ffffffffffffffffffffffffffffffffffffffff168573ffffffffffffffffffffffffffffffffffffffff16036110a65760006040517fe602df0500000000000000000000000000000000000000000000000000000000815260040161109d9190611953565b60405180910390fd5b600073ffffffffffffffffffffffffffffffffffffffff168473ffffffffffffffffffffffffffffffffffffffff16036111185760006040517f94280d6200000000000000000000000000000000000000000000000000000000815260040161110f9190611953565b60405180910390fd5b828160010160008773ffffffffffffffffffffffffffffffffffffffff1673ffffffffffffffffffffffffffffffffffffffff16815260200190815260200160002060008673ffffffffffffffffffffffffffffffffffffffff1673ffffffffffffffffffffffffffffffffffffffff168152602001908152602001600020819055508115611207578373ffffffffffffffffffffffffffffffffffffffff168573ffffffffffffffffffffffffffffffffffffffff167f8c5be1e5ebec7d5bd14f71427d1e84f3dd0314c0f7b2291e5b200ac8c7c3b925856040516111fe91906116f4565b60405180910390a35b5050505050565b6000611218610d0c565b9050600073ffffffffffffffffffffffffffffffffffffffff168473ffffffffffffffffffffffffffffffffffffffff160361126e57818160020160008282546112629190611d93565b92505081905550611347565b60008160000160008673ffffffffffffffffffffffffffffffffffffffff1673ffffffffffffffffffffffffffffffffffffffff168152602001908152602001600020549050828110156112fd578481846040517fe450d38c0000000000000000000000000000000000000000000000000000000081526004016112f493929190611d2d565b60405180910390fd5b8281038260000160008773ffffffffffffffffffffffffffffffffffffffff1673ffffffffffffffffffffffffffffffffffffffff16815260200190815260200160002081905550505b600073ffffffffffffffffffffffffffffffffffffffff168373ffffffffffffffffffffffffffffffffffffffff1603611392578181600201600082825403925050819055506113e2565b818160000160008573ffffffffffffffffffffffffffffffffffffffff1673ffffffffffffffffffffffffffffffffffffffff168152602001908152602001600020600082825401925050819055505b8273ffffffffffffffffffffffffffffffffffffffff168473ffffffffffffffffffffffffffffffffffffffff167fddf252ad1be2c89b69c2b068fc378daa952ba7f163c4a11628f55a4df523b3ef8460405161143f91906116f4565b60405180910390a350505050565b60007ff0c57e16840df040f15088dc2f81fe391c3923bec73e23a9662efc9c229c6a0060001b905090565b6114806114f5565b6114b6576040517fd7e6bcf800000000000000000000000000000000000000000000000000000000815260040160405180910390fd5b565b6114c0611478565b60006114ca610d0c565b9050828160030190816114dd9190611f69565b50818160040190816114ef9190611f69565b50505050565b60006114ff610ffe565b60000160089054906101000a900460ff16905090565b600081519050919050565b600082825260208201905092915050565b60005b8381101561154f578082015181840152602081019050611534565b60008484015250505050565b6000601f19601f8301169050919050565b600061157782611515565b6115818185611520565b9350611591818560208601611531565b61159a8161155b565b840191505092915050565b600060208201905081810360008301526115bf818461156c565b905092915050565b6000604051905090565b600080fd5b600080fd5b600073ffffffffffffffffffffffffffffffffffffffff82169050919050565b6000611606826115db565b9050919050565b611616816115fb565b811461162157600080fd5b50565b6000813590506116338161160d565b92915050565b6000819050919050565b61164c81611639565b811461165757600080fd5b50565b60008135905061166981611643565b92915050565b60008060408385031215611686576116856115d1565b5b600061169485828601611624565b92505060206116a58582860161165a565b9150509250929050565b60008115159050919050565b6116c4816116af565b82525050565b60006020820190506116df60008301846116bb565b92915050565b6116ee81611639565b82525050565b600060208201905061170960008301846116e5565b92915050565b600080600060608486031215611728576117276115d1565b5b600061173686828701611624565b935050602061174786828701611624565b92505060406117588682870161165a565b9150509250925092565b600060ff82169050919050565b61177881611762565b82525050565b6000602082019050611793600083018461176f565b92915050565b6000602082840312156117af576117ae6115d1565b5b60006117bd84828501611624565b91505092915050565b600080fd5b600080fd5b7f4e487b7100000000000000000000000000000000000000000000000000000000600052604160045260246000fd5b6118088261155b565b810181811067ffffffffffffffff82111715611827576118266117d0565b5b80604052505050565b600061183a6115c7565b905061184682826117ff565b919050565b600067ffffffffffffffff821115611866576118656117d0565b5b61186f8261155b565b9050602081019050919050565b82818337600083830152505050565b600061189e6118998461184b565b611830565b9050828152602081018484840111156118ba576118b96117cb565b5b6118c584828561187c565b509392505050565b600082601f8301126118e2576118e16117c6565b5b81356118f284826020860161188b565b91505092915050565b600060208284031215611911576119106115d1565b5b600082013567ffffffffffffffff81111561192f5761192e6115d6565b5b61193b848285016118cd565b91505092915050565b61194d816115fb565b82525050565b60006020820190506119686000830184611944565b92915050565b60008060408385031215611985576119846115d1565b5b600061199385828601611624565b92505060206119a485828601611624565b9150509250929050565b600067ffffffffffffffff8211156119c9576119c86117d0565b5b602082029050602081019050919050565b600080fd5b60006119f26119ed846119ae565b611830565b90508083825260208201905060208402830185811115611a1557611a146119da565b5b835b81811015611a3e5780611a2a8882611624565b845260208401935050602081019050611a17565b5050509392505050565b600082601f830112611a5d57611a5c6117c6565b5b8135611a6d8482602086016119df565b91505092915050565b60008060408385031215611a8d57611a8c6115d1565b5b600083013567ffffffffffffffff811115611aab57611aaa6115d6565b5b611ab785828601611a48565b9250506020611ac88582860161165a565b9150509250929050565b600060208284031215611ae857611ae76115d1565b5b6000611af68482850161165a565b91505092915050565b7f4e487b7100000000000000000000000000000000000000000000000000000000600052602260045260246000fd5b60006002820490506001821680611b4657607f821691505b602082108103611b5957611b58611aff565b5b50919050565b600081905092915050565b6000611b7582611515565b611b7f8185611b5f565b9350611b8f818560208601611531565b80840191505092915050565b6000611ba78284611b6a565b915081905092915050565b7f4861736820616c72656164792073746f72656400000000000000000000000000600082015250565b6000611be8601383611520565b9150611bf382611bb2565b602082019050919050565b60006020820190508181036000830152611c1781611bdb565b9050919050565b7f496e76616c696420616464726573730000000000000000000000000000000000600082015250565b6000611c54600f83611520565b9150611c5f82611c1e565b602082019050919050565b60006020820190508181036000830152611c8381611c47565b9050919050565b7f4e487b7100000000000000000000000000000000000000000000000000000000600052603260045260246000fd5b6000819050919050565b600067ffffffffffffffff82169050919050565b6000819050919050565b6000611cfc611cf7611cf284611cb9565b611cd7565b611cc3565b9050919050565b611d0c81611ce1565b82525050565b6000602082019050611d276000830184611d03565b92915050565b6000606082019050611d426000830186611944565b611d4f60208301856116e5565b611d5c60408301846116e5565b949350505050565b7f4e487b7100000000000000000000000000000000000000000000000000000000600052601160045260246000fd5b6000611d9e82611639565b9150611da983611639565b9250828201905080821115611dc157611dc0611d64565b5b92915050565b60008190508160005260206000209050919050565b60006020601f8301049050919050565b600082821b905092915050565b600060088302611e297fffffffffffffffffffffffffffffffffffffffffffffffffffffffffffffffff82611dec565b611e338683611dec565b95508019841693508086168417925050509392505050565b6000611e66611e61611e5c84611639565b611cd7565b611639565b9050919050565b6000819050919050565b611e8083611e4b565b611e94611e8c82611e6d565b848454611df9565b825550505050565b600090565b611ea9611e9c565b611eb4818484611e77565b505050565b5b81811015611ed857611ecd600082611ea1565b600181019050611eba565b5050565b601f821115611f1d57611eee81611dc7565b611ef784611ddc565b81016020851015611f06578190505b611f1a611f1285611ddc565b830182611eb9565b50505b505050565b600082821c905092915050565b6000611f4060001984600802611f22565b1980831691505092915050565b6000611f598383611f2f565b9150826002028217905092915050565b611f7282611515565b67ffffffffffffffff811115611f8b57611f8a6117d0565b5b611f958254611b2e565b611fa0828285611edc565b600060209050601f831160018114611fd35760008415611fc1578287015190505b611fcb8582611f4d565b865550612033565b601f198416611fe186611dc7565b60005b8281101561200957848901518255600182019150602085019450602081019050611fe4565b868310156120265784890151612022601f891682611f2f565b8355505b6001600288020188555050505b50505050505056fea2646970667358221220dfd2505e3298d7ec60abcf06db3cec953e912ac3299dd8dd7ea963411d4da80a64736f6c63430008180033",
  "linkReferences": {},
  "deployedLinkReferences": {}
}