{
  "_format": "hh-sol-artifact-1",
  "contractName": "MPS",
  "sourceName": "contracts/MPS.sol",
  "abi": [
    {
      "inputs": [
        {
          "internalType": "address",
          "name": "spender",
          "type": "address"
        },
        {
          "internalType": "uint256",
          "name": "allowance",
          "type": "uint256"
        },
        {
          "internalType": "uint256",
          "name": "needed",
          "type": "uint256"
        }
      ],
      "name": "ERC20InsufficientAllowance",
      "type": "error"
    },
    {
      "inputs": [
        {
          "internalType": "address",
          "name": "sender",
          "type": "address"
        },
        {
          "internalType": "uint256",
          "name": "balance",
          "type": "uint256"
        },
        {
          "internalType": "uint256",
          "name": "needed",
          "type": "uint256"
        }
      ],
      "name": "ERC20InsufficientBalance",
      "type": "error"
    },
    {
      "inputs": [
        {
          "internalType": "address",
          "name": "approver",
          "type": "address"
        }
      ],
      "name": "ERC20InvalidApprover",
      "type": "error"
    },
    {
      "inputs": [
        {
          "internalType": "address",
          "name": "receiver",
          "type": "address"
        }
      ],
      "name": "ERC20InvalidReceiver",
      "type": "error"
    },
    {
      "inputs": [
        {
          "internalType": "address",
          "name": "sender",
          "type": "address"
        }
      ],
      "name": "ERC20InvalidSender",
      "type": "error"
    },
    {
      "inputs": [
        {
          "internalType": "address",
          "name": "spender",
          "type": "address"
        }
      ],
      "name": "ERC20InvalidSpender",
      "type": "error"
    },
    {
      "inputs": [],
      "name": "InvalidInitialization",
      "type": "error"
    },
    {
      "inputs": [],
      "name": "NotInitializing",
      "type": "error"
    },
    {
      "inputs": [
        {
          "internalType": "address",
          "name": "owner",
          "type": "address"
        }
      ],
      "name": "OwnableInvalidOwner",
      "type": "error"
    },
    {
      "inputs": [
        {
          "internalType": "address",
          "name": "account",
          "type": "address"
        }
      ],
      "name": "OwnableUnauthorizedAccount",
      "type": "error"
    },
    {
      "anonymous": false,
      "inputs": [
        {
          "indexed": true,
          "internalType": "address",
          "name": "owner",
          "type": "address"
        },
        {
          "indexed": true,
          "internalType": "address",
          "name": "spender",
          "type": "address"
        },
        {
          "indexed": false,
          "internalType": "uint256",
          "name": "value",
          "type": "uint256"
        }
      ],
      "name": "Approval",
      "type": "event"
    },
    {
      "anonymous": false,
      "inputs": [
        {
          "indexed": true,
          "internalType": "address",
          "name": "from",
          "type": "address"
        },
        {
          "indexed": false,
          "internalType": "uint256",
          "name": "value",
          "type": "uint256"
        }
      ],
      "name": "Burn",
      "type": "event"
    },
    {
      "anonymous": false,
      "inputs": [
        {
          "indexed": false,
          "internalType": "string",
          "name": "hash",
          "type": "string"
        },
        {
          "indexed": true,
          "internalType": "address",
          "name": "sender",
          "type": "address"
        }
      ],
      "name": "HashStored",
      "type": "event"
    },
    {
      "anonymous": false,
      "inputs": [
        {
          "indexed": false,
          "internalType": "uint64",
          "name": "version",
          "type": "uint64"
        }
      ],
      "name": "Initialized",
      "type": "event"
    },
    {
      "anonymous": false,
      "inputs": [
        {
          "indexed": true,
          "internalType": "address",
          "name": "to",
          "type": "address"
        },
        {
          "indexed": false,
          "internalType": "uint256",
          "name": "value",
          "type": "uint256"
        }
      ],
      "name": "Mint",
      "type": "event"
    },
    {
      "anonymous": false,
      "inputs": [
        {
          "indexed": true,
          "internalType": "address",
          "name": "previousOwner",
          "type": "address"
        },
        {
          "indexed": true,
          "internalType": "address",
          "name": "newOwner",
          "type": "address"
        }
      ],
      "name": "OwnershipTransferred",
      "type": "event"
    },
    {
      "anonymous": false,
      "inputs": [
        {
          "indexed": false,
          "internalType": "string",
          "name": "content",
          "type": "string"
        }
      ],
      "name": "ReviewStored",
      "type": "event"
    },
    {
      "anonymous": false,
      "inputs": [
        {
          "indexed": true,
          "internalType": "address",
          "name": "from",
          "type": "address"
        },
        {
          "indexed": true,
          "internalType": "address",
          "name": "to",
          "type": "address"
        },
        {
          "indexed": false,
          "internalType": "uint256",
          "name": "value",
          "type": "uint256"
        }
      ],
      "name": "Transfer",
      "type": "event"
    },
    {
      "anonymous": false,
      "inputs": [
        {
          "indexed": true,
          "internalType": "address",
          "name": "from",
          "type": "address"
        },
        {
          "indexed": true,
          "internalType": "address",
          "name": "to",
          "type": "address"
        },
        {
          "indexed": false,
          "internalType": "uint256",
          "name": "value",
          "type": "uint256"
        }
      ],
      "name": "TransferWithHash",
      "type": "event"
    },
    {
      "inputs": [
        {
          "internalType": "address",
          "name": "owner",
          "type": "address"
        },
        {
          "internalType": "address",
          "name": "spender",
          "type": "address"
        }
      ],
      "name": "allowance",
      "outputs": [
        {
          "internalType": "uint256",
          "name": "",
          "type": "uint256"
        }
      ],
      "stateMutability": "view",
      "type": "function"
    },
    {
      "inputs": [
        {
          "internalType": "address",
          "name": "spender",
          "type": "address"
        },
        {
          "internalType": "uint256",
          "name": "value",
          "type": "uint256"
        }
      ],
      "name": "approve",
      "outputs": [
        {
          "internalType": "bool",
          "name": "",
          "type": "bool"
        }
      ],
      "stateMutability": "nonpayable",
      "type": "function"
    },
    {
      "inputs": [
        {
          "internalType": "address",
          "name": "account",
          "type": "address"
        }
      ],
      "name": "balanceOf",
      "outputs": [
        {
          "internalType": "uint256",
          "name": "",
          "type": "uint256"
        }
      ],
      "stateMutability": "view",
      "type": "function"
    },
    {
      "inputs": [],
      "name": "decimals",
      "outputs": [
        {
          "internalType": "uint8",
          "name": "",
          "type": "uint8"
        }
      ],
      "stateMutability": "view",
      "type": "function"
    },
    {
      "inputs": [
        {
          "internalType": "string",
          "name": "hash",
          "type": "string"
        }
      ],
      "name": "getRecipientByHash",
      "outputs": [
        {
          "internalType": "address",
          "name": "",
          "type": "address"
        }
      ],
      "stateMutability": "view",
      "type": "function"
    },
    {
      "inputs": [
        {
          "internalType": "string",
          "name": "content",
          "type": "string"
        }
      ],
      "name": "getReviewByHash",
      "outputs": [
        {
          "internalType": "address",
          "name": "",
          "type": "address"
        }
      ],
      "stateMutability": "view",
      "type": "function"
    },
    {
      "inputs": [
        {
          "internalType": "uint256",
          "name": "initialSupply",
          "type": "uint256"
        }
      ],
      "name": "initialize",
      "outputs": [],
      "stateMutability": "nonpayable",
      "type": "function"
    },
    {
      "inputs": [
        {
          "internalType": "address[]",
          "name": "toAddresses",
          "type": "address[]"
        },
        {
          "internalType": "uint256",
          "name": "amount",
          "type": "uint256"
        }
      ],
      "name": "mint",
      "outputs": [],
      "stateMutability": "nonpayable",
      "type": "function"
    },
    {
      "inputs": [],
      "name": "name",
      "outputs": [
        {
          "internalType": "string",
          "name": "",
          "type": "string"
        }
      ],
      "stateMutability": "view",
      "type": "function"
    },
    {
      "inputs": [],
      "name": "owner",
      "outputs": [
        {
          "internalType": "address",
          "name": "",
          "type": "address"
        }
      ],
      "stateMutability": "view",
      "type": "function"
    },
    {
      "inputs": [
        {
          "internalType": "address",
          "name": "user",
          "type": "address"
        }
      ],
      "name": "registerUser",
      "outputs": [],
      "stateMutability": "nonpayable",
      "type": "function"
    },
    {
      "inputs": [],
      "name": "renounceOwnership",
      "outputs": [],
      "stateMutability": "nonpayable",
      "type": "function"
    },
    {
      "inputs": [
        {
          "internalType": "string",
          "name": "hash",
          "type": "string"
        }
      ],
      "name": "storeHash",
      "outputs": [],
      "stateMutability": "nonpayable",
      "type": "function"
    },
    {
      "inputs": [
        {
          "internalType": "string",
          "name": "content",
          "type": "string"
        }
      ],
      "name": "storeReview",
      "outputs": [],
      "stateMutability": "nonpayable",
      "type": "function"
    },
    {
      "inputs": [],
      "name": "symbol",
      "outputs": [
        {
          "internalType": "string",
          "name": "",
          "type": "string"
        }
      ],
      "stateMutability": "view",
      "type": "function"
    },
    {
      "inputs": [],
      "name": "totalSupply",
      "outputs": [
        {
          "internalType": "uint256",
          "name": "",
          "type": "uint256"
        }
      ],
      "stateMutability": "view",
      "type": "function"
    },
    {
      "inputs": [
        {
          "internalType": "address",
          "name": "recipient",
          "type": "address"
        },
        {
          "internalType": "uint256",
          "name": "amount",
          "type": "uint256"
        }
      ],
      "name": "transfer",
      "outputs": [
        {
          "internalType": "bool",
          "name": "",
          "type": "bool"
        }
      ],
      "stateMutability": "nonpayable",
      "type": "function"
    },
    {
      "inputs": [
        {
          "internalType": "address",
          "name": "from",
          "type": "address"
        },
        {
          "internalType": "address",
          "name": "to",
          "type": "address"
        },
        {
          "internalType": "uint256",
          "name": "value",
          "type": "uint256"
        }
      ],
      "name": "transferFrom",
      "outputs": [
        {
          "internalType": "bool",
          "name": "",
          "type": "bool"
        }
      ],
      "stateMutability": "nonpayable",
      "type": "function"
    },
    {
      "inputs": [
        {
          "internalType": "address",
          "name": "newOwner",
          "type": "address"
        }
      ],
      "name": "transferOwnership",
      "outputs": [],
      "stateMutability": "nonpayable",
      "type": "function"
    }
  ],
  "bytecode": "0x608060405234801561001057600080fd5b50612752806100206000396000f3fe608060405234801561001057600080fd5b50600436106101215760003560e01c8063882514f2116100ad578063db83688111610071578063db8368811461030a578063dd62ed3e1461033a578063ea66696c1461036a578063f2fde38b14610386578063fe4b84df146103a257610121565b8063882514f2146102525780638c23b081146102825780638da5cb5b1461029e57806395d89b41146102bc578063a9059cbb146102da57610121565b806323b872dd116100f457806323b872dd146101ae578063313ce567146101de57806370a08231146101fc578063715018a61461022c57806371dc61cb1461023657610121565b806306fdde0314610126578063095ea7b31461014457806318160ddd146101745780632199d5cd14610192575b600080fd5b61012e6103be565b60405161013b919061197c565b60405180910390f35b61015e60048036038101906101599190611a46565b61045f565b60405161016b9190611aa1565b60405180910390f35b61017c610482565b6040516101899190611acb565b60405180910390f35b6101ac60048036038101906101a79190611ae6565b61049a565b005b6101c860048036038101906101c39190611b13565b610606565b6040516101d59190611aa1565b60405180910390f35b6101e6610635565b6040516101f39190611b82565b60405180910390f35b61021660048036038101906102119190611ae6565b61063e565b6040516102239190611acb565b60405180910390f35b610234610695565b005b610250600480360381019061024b9190611cd2565b6106a9565b005b61026c60048036038101906102679190611cd2565b610878565b6040516102799190611d2a565b60405180910390f35b61029c60048036038101906102979190611cd2565b6108bf565b005b6102a6610956565b6040516102b39190611d2a565b60405180910390f35b6102c461098e565b6040516102d1919061197c565b60405180910390f35b6102f460048036038101906102ef9190611a46565b610a2f565b6040516103019190611aa1565b60405180910390f35b610324600480360381019061031f9190611cd2565b610b19565b6040516103319190611d2a565b60405180910390f35b610354600480360381019061034f9190611d45565b610b61565b6040516103619190611acb565b60405180910390f35b610384600480360381019061037f9190611e4d565b610bf6565b005b6103a0600480360381019061039b9190611ae6565b610ca8565b005b6103bc60048036038101906103b79190611ea9565b610d2e565b005b606060006103ca610f45565b90508060030180546103db90611f05565b80601f016020809104026020016040519081016040528092919081815260200182805461040790611f05565b80156104545780601f1061042957610100808354040283529160200191610454565b820191906000526020600020905b81548152906001019060200180831161043757829003601f168201915b505050505091505090565b60008061046a610f6d565b9050610477818585610f75565b600191505092915050565b60008061048d610f45565b9050806002015491505090565b6104a2610f87565b600260008273ffffffffffffffffffffffffffffffffffffffff1673ffffffffffffffffffffffffffffffffffffffff16815260200190815260200160002060009054906101000a900460ff161561052f576040517f08c379a000000000000000000000000000000000000000000000000000000000815260040161052690611f82565b60405180910390fd5b6000610539610635565b600a6105459190612104565b6101f4610552919061214f565b90508061055e3061063e565b101561059f576040517f08c379a000000000000000000000000000000000000000000000000000000000815260040161059690612203565b60405180910390fd5b6001600260008473ffffffffffffffffffffffffffffffffffffffff1673ffffffffffffffffffffffffffffffffffffffff16815260200190815260200160002060006101000a81548160ff02191690831515021790555061060230838361100e565b5050565b600080610611610f6d565b905061061e858285611102565b61062985858561100e565b60019150509392505050565b60006012905090565b600080610649610f45565b90508060000160008473ffffffffffffffffffffffffffffffffffffffff1673ffffffffffffffffffffffffffffffffffffffff16815260200190815260200160002054915050919050565b61069d610f87565b6106a76000611197565b565b600073ffffffffffffffffffffffffffffffffffffffff166000826040516106d1919061225f565b908152602001604051809103902060009054906101000a900473ffffffffffffffffffffffffffffffffffffffff1673ffffffffffffffffffffffffffffffffffffffff16148061078b57503373ffffffffffffffffffffffffffffffffffffffff16600082604051610744919061225f565b908152602001604051809103902060009054906101000a900473ffffffffffffffffffffffffffffffffffffffff1673ffffffffffffffffffffffffffffffffffffffff16145b6107ca576040517f08c379a00000000000000000000000000000000000000000000000000000000081526004016107c1906122e8565b60405180910390fd5b336000826040516107db919061225f565b908152602001604051809103902060006101000a81548173ffffffffffffffffffffffffffffffffffffffff021916908373ffffffffffffffffffffffffffffffffffffffff1602179055503373ffffffffffffffffffffffffffffffffffffffff167f86fe26a4c2c4da61049e3786668239929ce2f0465c18b8c655ad4cd126df9ea98260405161086d919061197c565b60405180910390a250565b60008082604051610889919061225f565b908152602001604051809103902060009054906101000a900473ffffffffffffffffffffffffffffffffffffffff169050919050565b336001826040516108d0919061225f565b908152602001604051809103902060006101000a81548173ffffffffffffffffffffffffffffffffffffffff021916908373ffffffffffffffffffffffffffffffffffffffff1602179055507fcb08fdcb10363722336d254fcc0aa3a2f24fe63245fdbb1fdd1a1064d8c75ea28160405161094b919061197c565b60405180910390a150565b60008061096161126e565b90508060000160009054906101000a900473ffffffffffffffffffffffffffffffffffffffff1691505090565b6060600061099a610f45565b90508060040180546109ab90611f05565b80601f01602080910402602001604051908101604052809291908181526020018280546109d790611f05565b8015610a245780601f106109f957610100808354040283529160200191610a24565b820191906000526020600020905b815481529060010190602001808311610a0757829003601f168201915b505050505091505090565b60008073ffffffffffffffffffffffffffffffffffffffff168373ffffffffffffffffffffffffffffffffffffffff1603610a9f576040517f08c379a0000000000000000000000000000000000000000000000000000000008152600401610a969061237a565b60405180910390fd5b610aa98383611296565b508273ffffffffffffffffffffffffffffffffffffffff163373ffffffffffffffffffffffffffffffffffffffff167f6b525005bc93437a219538e3a08ce19ff9b23abacb849261956e3eedd93b16db84604051610b079190611acb565b60405180910390a36001905092915050565b6000600182604051610b2b919061225f565b908152602001604051809103902060009054906101000a900473ffffffffffffffffffffffffffffffffffffffff169050919050565b600080610b6c610f45565b90508060010160008573ffffffffffffffffffffffffffffffffffffffff1673ffffffffffffffffffffffffffffffffffffffff16815260200190815260200160002060008473ffffffffffffffffffffffffffffffffffffffff1673ffffffffffffffffffffffffffffffffffffffff1681526020019081526020016000205491505092915050565b610bfe610f87565b60005b8251811015610ca357610c2e838281518110610c2057610c1f61239a565b5b6020026020010151836112b9565b828181518110610c4157610c4061239a565b5b602002602001015173ffffffffffffffffffffffffffffffffffffffff167f0f6798a560793a54c3bcfe86a93cde1e73087d944c0ea20544137d412139688583604051610c8e9190611acb565b60405180910390a28080600101915050610c01565b505050565b610cb0610f87565b600073ffffffffffffffffffffffffffffffffffffffff168173ffffffffffffffffffffffffffffffffffffffff1603610d225760006040517f1e4fbdf7000000000000000000000000000000000000000000000000000000008152600401610d199190611d2a565b60405180910390fd5b610d2b81611197565b50565b6000610d3861133b565b905060008160000160089054906101000a900460ff1615905060008260000160009054906101000a900467ffffffffffffffff1690506000808267ffffffffffffffff16148015610d865750825b9050600060018367ffffffffffffffff16148015610dbb575060003073ffffffffffffffffffffffffffffffffffffffff163b145b905081158015610dc9575080155b15610e00576040517ff92ee8a900000000000000000000000000000000000000000000000000000000815260040160405180910390fd5b60018560000160006101000a81548167ffffffffffffffff021916908367ffffffffffffffff1602179055508315610e505760018560000160086101000a81548160ff0219169083151502179055505b610ec46040518060400160405280600381526020017f4d505300000000000000000000000000000000000000000000000000000000008152506040518060400160405280600381526020017f4d5053000000000000000000000000000000000000000000000000000000000081525061134f565b610ecd33611365565b6000861115610ee157610ee033876112b9565b5b8315610f3d5760008560000160086101000a81548160ff0219169083151502179055507fc7f505b2f371ae2175ee4913f4499e1f2633a7b5936321eed1cdaeb6115181d26001604051610f349190612422565b60405180910390a15b505050505050565b60007f52c63247e1f47db19d5ce0460030c497f067ca4cebf71ba98eeadabe20bace00905090565b600033905090565b610f828383836001611379565b505050565b610f8f610f6d565b73ffffffffffffffffffffffffffffffffffffffff16610fad610956565b73ffffffffffffffffffffffffffffffffffffffff161461100c57610fd0610f6d565b6040517f118cdaa70000000000000000000000000000000000000000000000000000000081526004016110039190611d2a565b60405180910390fd5b565b600073ffffffffffffffffffffffffffffffffffffffff168373ffffffffffffffffffffffffffffffffffffffff16036110805760006040517f96c6fd1e0000000000000000000000000000000000000000000000000000000081526004016110779190611d2a565b60405180910390fd5b600073ffffffffffffffffffffffffffffffffffffffff168273ffffffffffffffffffffffffffffffffffffffff16036110f25760006040517fec442f050000000000000000000000000000000000000000000000000000000081526004016110e99190611d2a565b60405180910390fd5b6110fd83838361155f565b505050565b600061110e8484610b61565b90507fffffffffffffffffffffffffffffffffffffffffffffffffffffffffffffffff8110156111915781811015611181578281836040517ffb8f41b20000000000000000000000000000000000000000000000000000000081526004016111789392919061243d565b60405180910390fd5b61119084848484036000611379565b5b50505050565b60006111a161126e565b905060008160000160009054906101000a900473ffffffffffffffffffffffffffffffffffffffff169050828260000160006101000a81548173ffffffffffffffffffffffffffffffffffffffff021916908373ffffffffffffffffffffffffffffffffffffffff1602179055508273ffffffffffffffffffffffffffffffffffffffff168173ffffffffffffffffffffffffffffffffffffffff167f8be0079c531659141344cd1fd0a4f28419497f9722a3daafe3b4186f6b6457e060405160405180910390a3505050565b60007f9016d09d72d40fdae2fd8ceac6b6234c7706214fd39c1cd1e609a0528c199300905090565b6000806112a1610f6d565b90506112ae81858561100e565b600191505092915050565b600073ffffffffffffffffffffffffffffffffffffffff168273ffffffffffffffffffffffffffffffffffffffff160361132b5760006040517fec442f050000000000000000000000000000000000000000000000000000000081526004016113229190611d2a565b60405180910390fd5b6113376000838361155f565b5050565b60008061134661179e565b90508091505090565b6113576117c9565b6113618282611809565b5050565b61136d6117c9565b61137681611846565b50565b6000611383610f45565b9050600073ffffffffffffffffffffffffffffffffffffffff168573ffffffffffffffffffffffffffffffffffffffff16036113f75760006040517fe602df050000000000000000000000000000000000000000000000000000000081526004016113ee9190611d2a565b60405180910390fd5b600073ffffffffffffffffffffffffffffffffffffffff168473ffffffffffffffffffffffffffffffffffffffff16036114695760006040517f94280d620000000000000000000000000000000000000000000000000000000081526004016114609190611d2a565b60405180910390fd5b828160010160008773ffffffffffffffffffffffffffffffffffffffff1673ffffffffffffffffffffffffffffffffffffffff16815260200190815260200160002060008673ffffffffffffffffffffffffffffffffffffffff1673ffffffffffffffffffffffffffffffffffffffff168152602001908152602001600020819055508115611558578373ffffffffffffffffffffffffffffffffffffffff168573ffffffffffffffffffffffffffffffffffffffff167f8c5be1e5ebec7d5bd14f71427d1e84f3dd0314c0f7b2291e5b200ac8c7c3b9258560405161154f9190611acb565b60405180910390a35b5050505050565b6000611569610f45565b9050600073ffffffffffffffffffffffffffffffffffffffff168473ffffffffffffffffffffffffffffffffffffffff16036115bf57818160020160008282546115b39190612474565b92505081905550611698565b60008160000160008673ffffffffffffffffffffffffffffffffffffffff1673ffffffffffffffffffffffffffffffffffffffff1681526020019081526020016000205490508281101561164e578481846040517fe450d38c0000000000000000000000000000000000000000000000000000000081526004016116459392919061243d565b60405180910390fd5b8281038260000160008773ffffffffffffffffffffffffffffffffffffffff1673ffffffffffffffffffffffffffffffffffffffff16815260200190815260200160002081905550505b600073ffffffffffffffffffffffffffffffffffffffff168373ffffffffffffffffffffffffffffffffffffffff16036116e357818160020160008282540392505081905550611733565b818160000160008573ffffffffffffffffffffffffffffffffffffffff1673ffffffffffffffffffffffffffffffffffffffff168152602001908152602001600020600082825401925050819055505b8273ffffffffffffffffffffffffffffffffffffffff168473ffffffffffffffffffffffffffffffffffffffff167fddf252ad1be2c89b69c2b068fc378daa952ba7f163c4a11628f55a4df523b3ef846040516117909190611acb565b60405180910390a350505050565b60007ff0c57e16840df040f15088dc2f81fe391c3923bec73e23a9662efc9c229c6a0060001b905090565b6117d16118cc565b611807576040517fd7e6bcf800000000000000000000000000000000000000000000000000000000815260040160405180910390fd5b565b6118116117c9565b600061181b610f45565b90508281600301908161182e919061264a565b5081816004019081611840919061264a565b50505050565b61184e6117c9565b600073ffffffffffffffffffffffffffffffffffffffff168173ffffffffffffffffffffffffffffffffffffffff16036118c05760006040517f1e4fbdf70000000000000000000000000000000000000000000000000000000081526004016118b79190611d2a565b60405180910390fd5b6118c981611197565b50565b60006118d661133b565b60000160089054906101000a900460ff16905090565b600081519050919050565b600082825260208201905092915050565b60005b8381101561192657808201518184015260208101905061190b565b60008484015250505050565b6000601f19601f8301169050919050565b600061194e826118ec565b61195881856118f7565b9350611968818560208601611908565b61197181611932565b840191505092915050565b600060208201905081810360008301526119968184611943565b905092915050565b6000604051905090565b600080fd5b600080fd5b600073ffffffffffffffffffffffffffffffffffffffff82169050919050565b60006119dd826119b2565b9050919050565b6119ed816119d2565b81146119f857600080fd5b50565b600081359050611a0a816119e4565b92915050565b6000819050919050565b611a2381611a10565b8114611a2e57600080fd5b50565b600081359050611a4081611a1a565b92915050565b60008060408385031215611a5d57611a5c6119a8565b5b6000611a6b858286016119fb565b9250506020611a7c85828601611a31565b9150509250929050565b60008115159050919050565b611a9b81611a86565b82525050565b6000602082019050611ab66000830184611a92565b92915050565b611ac581611a10565b82525050565b6000602082019050611ae06000830184611abc565b92915050565b600060208284031215611afc57611afb6119a8565b5b6000611b0a848285016119fb565b91505092915050565b600080600060608486031215611b2c57611b2b6119a8565b5b6000611b3a868287016119fb565b9350506020611b4b868287016119fb565b9250506040611b5c86828701611a31565b9150509250925092565b600060ff82169050919050565b611b7c81611b66565b82525050565b6000602082019050611b976000830184611b73565b92915050565b600080fd5b600080fd5b7f4e487b7100000000000000000000000000000000000000000000000000000000600052604160045260246000fd5b611bdf82611932565b810181811067ffffffffffffffff82111715611bfe57611bfd611ba7565b5b80604052505050565b6000611c1161199e565b9050611c1d8282611bd6565b919050565b600067ffffffffffffffff821115611c3d57611c3c611ba7565b5b611c4682611932565b9050602081019050919050565b82818337600083830152505050565b6000611c75611c7084611c22565b611c07565b905082815260208101848484011115611c9157611c90611ba2565b5b611c9c848285611c53565b509392505050565b600082601f830112611cb957611cb8611b9d565b5b8135611cc9848260208601611c62565b91505092915050565b600060208284031215611ce857611ce76119a8565b5b600082013567ffffffffffffffff811115611d0657611d056119ad565b5b611d1284828501611ca4565b91505092915050565b611d24816119d2565b82525050565b6000602082019050611d3f6000830184611d1b565b92915050565b60008060408385031215611d5c57611d5b6119a8565b5b6000611d6a858286016119fb565b9250506020611d7b858286016119fb565b9150509250929050565b600067ffffffffffffffff821115611da057611d9f611ba7565b5b602082029050602081019050919050565b600080fd5b6000611dc9611dc484611d85565b611c07565b90508083825260208201905060208402830185811115611dec57611deb611db1565b5b835b81811015611e155780611e0188826119fb565b845260208401935050602081019050611dee565b5050509392505050565b600082601f830112611e3457611e33611b9d565b5b8135611e44848260208601611db6565b91505092915050565b60008060408385031215611e6457611e636119a8565b5b600083013567ffffffffffffffff811115611e8257611e816119ad565b5b611e8e85828601611e1f565b9250506020611e9f85828601611a31565b9150509250929050565b600060208284031215611ebf57611ebe6119a8565b5b6000611ecd84828501611a31565b91505092915050565b7f4e487b7100000000000000000000000000000000000000000000000000000000600052602260045260246000fd5b60006002820490506001821680611f1d57607f821691505b602082108103611f3057611f2f611ed6565b5b50919050565b7f4d50533a20557365722068617320616c72656164792072656769737465726564600082015250565b6000611f6c6020836118f7565b9150611f7782611f36565b602082019050919050565b60006020820190508181036000830152611f9b81611f5f565b9050919050565b7f4e487b7100000000000000000000000000000000000000000000000000000000600052601160045260246000fd5b60008160011c9050919050565b6000808291508390505b60018511156120285780860481111561200457612003611fa2565b5b60018516156120135780820291505b808102905061202185611fd1565b9450611fe8565b94509492505050565b60008261204157600190506120fd565b8161204f57600090506120fd565b8160018114612065576002811461206f5761209e565b60019150506120fd565b60ff84111561208157612080611fa2565b5b8360020a91508482111561209857612097611fa2565b5b506120fd565b5060208310610133831016604e8410600b84101617156120d35782820a9050838111156120ce576120cd611fa2565b5b6120fd565b6120e08484846001611fde565b925090508184048111156120f7576120f6611fa2565b5b81810290505b9392505050565b600061210f82611a10565b915061211a83611b66565b92506121477fffffffffffffffffffffffffffffffffffffffffffffffffffffffffffffffff8484612031565b905092915050565b600061215a82611a10565b915061216583611a10565b925082820261217381611a10565b9150828204841483151761218a57612189611fa2565b5b5092915050565b7f4d50533a20496e73756666696369656e7420746f6b656e7320696e207468652060008201527f636f6e747261637420666f722072657761726400000000000000000000000000602082015250565b60006121ed6033836118f7565b91506121f882612191565b604082019050919050565b6000602082019050818103600083015261221c816121e0565b9050919050565b600081905092915050565b6000612239826118ec565b6122438185612223565b9350612253818560208601611908565b80840191505092915050565b600061226b828461222e565b915081905092915050565b7f4d50533a204861736820616c72656164792073746f726564206f72206e6f742060008201527f6f776e6572000000000000000000000000000000000000000000000000000000602082015250565b60006122d26025836118f7565b91506122dd82612276565b604082019050919050565b60006020820190508181036000830152612301816122c5565b9050919050565b7f45524332303a207472616e7366657220746f20746865207a65726f206164647260008201527f6573730000000000000000000000000000000000000000000000000000000000602082015250565b60006123646023836118f7565b915061236f82612308565b604082019050919050565b6000602082019050818103600083015261239381612357565b9050919050565b7f4e487b7100000000000000000000000000000000000000000000000000000000600052603260045260246000fd5b6000819050919050565b600067ffffffffffffffff82169050919050565b6000819050919050565b600061240c612407612402846123c9565b6123e7565b6123d3565b9050919050565b61241c816123f1565b82525050565b60006020820190506124376000830184612413565b92915050565b60006060820190506124526000830186611d1b565b61245f6020830185611abc565b61246c6040830184611abc565b949350505050565b600061247f82611a10565b915061248a83611a10565b92508282019050808211156124a2576124a1611fa2565b5b92915050565b60008190508160005260206000209050919050565b60006020601f8301049050919050565b600082821b905092915050565b60006008830261250a7fffffffffffffffffffffffffffffffffffffffffffffffffffffffffffffffff826124cd565b61251486836124cd565b95508019841693508086168417925050509392505050565b600061254761254261253d84611a10565b6123e7565b611a10565b9050919050565b6000819050919050565b6125618361252c565b61257561256d8261254e565b8484546124da565b825550505050565b600090565b61258a61257d565b612595818484612558565b505050565b5b818110156125b9576125ae600082612582565b60018101905061259b565b5050565b601f8211156125fe576125cf816124a8565b6125d8846124bd565b810160208510156125e7578190505b6125fb6125f3856124bd565b83018261259a565b50505b505050565b600082821c905092915050565b600061262160001984600802612603565b1980831691505092915050565b600061263a8383612610565b9150826002028217905092915050565b612653826118ec565b67ffffffffffffffff81111561266c5761266b611ba7565b5b6126768254611f05565b6126818282856125bd565b600060209050601f8311600181146126b457600084156126a2578287015190505b6126ac858261262e565b865550612714565b601f1984166126c2866124a8565b60005b828110156126ea578489015182556001820191506020850194506020810190506126c5565b868310156127075784890151612703601f891682612610565b8355505b6001600288020188555050505b50505050505056fea2646970667358221220dc2e7d5a1839c04abc40fc79abf4e1ea0e3eb9b69be63ed4f5f644043d46b74b64736f6c63430008180033",
  "linkReferences": {},
  "deployedLinkReferences": {}
}