{
  "_format": "hh-sol-artifact-1",
  "contractName": "MPERproxy",
  "sourceName": "contracts/MPERproxy.sol",
  "abi": [
    {
      "inputs": [
        {
          "internalType": "address",
          "name": "logic",
          "type": "address"
        },
        {
          "internalType": "address",
          "name": "admin",
          "type": "address"
        },
        {
          "internalType": "bytes",
          "name": "data",
          "type": "bytes"
        },
        {
          "internalType": "uint256",
          "name": "initialDelay",
          "type": "uint256"
        }
      ],
      "stateMutability": "nonpayable",
      "type": "constructor"
    },
    {
      "inputs": [
        {
          "internalType": "address",
          "name": "target",
          "type": "address"
        }
      ],
      "name": "AddressEmptyCode",
      "type": "error"
    },
    {
      "inputs": [
        {
          "internalType": "address",
          "name": "implementation",
          "type": "address"
        }
      ],
      "name": "ERC1967InvalidImplementation",
      "type": "error"
    },
    {
      "inputs": [],
      "name": "ERC1967NonPayable",
      "type": "error"
    },
    {
      "inputs": [],
      "name": "FailedCall",
      "type": "error"
    },
    {
      "inputs": [
        {
          "internalType": "address",
          "name": "owner",
          "type": "address"
        }
      ],
      "name": "OwnableInvalidOwner",
      "type": "error"
    },
    {
      "inputs": [
        {
          "internalType": "address",
          "name": "account",
          "type": "address"
        }
      ],
      "name": "OwnableUnauthorizedAccount",
      "type": "error"
    },
    {
      "anonymous": false,
      "inputs": [
        {
          "indexed": true,
          "internalType": "address",
          "name": "implementation",
          "type": "address"
        },
        {
          "indexed": true,
          "internalType": "address",
          "name": "admin",
          "type": "address"
        }
      ],
      "name": "Initialized",
      "type": "event"
    },
    {
      "anonymous": false,
      "inputs": [
        {
          "indexed": true,
          "internalType": "address",
          "name": "previousOwner",
          "type": "address"
        },
        {
          "indexed": true,
          "internalType": "address",
          "name": "newOwner",
          "type": "address"
        }
      ],
      "name": "OwnershipTransferStarted",
      "type": "event"
    },
    {
      "anonymous": false,
      "inputs": [
        {
          "indexed": true,
          "internalType": "address",
          "name": "previousOwner",
          "type": "address"
        },
        {
          "indexed": true,
          "internalType": "address",
          "name": "newOwner",
          "type": "address"
        }
      ],
      "name": "OwnershipTransferred",
      "type": "event"
    },
    {
      "anonymous": false,
      "inputs": [
        {
          "indexed": true,
          "internalType": "bytes32",
          "name": "proposalId",
          "type": "bytes32"
        }
      ],
      "name": "UpgradeCancelled",
      "type": "event"
    },
    {
      "anonymous": false,
      "inputs": [
        {
          "indexed": false,
          "internalType": "uint256",
          "name": "oldDelay",
          "type": "uint256"
        },
        {
          "indexed": false,
          "internalType": "uint256",
          "name": "newDelay",
          "type": "uint256"
        }
      ],
      "name": "UpgradeDelayChanged",
      "type": "event"
    },
    {
      "anonymous": false,
      "inputs": [
        {
          "indexed": true,
          "internalType": "address",
          "name": "implementation",
          "type": "address"
        }
      ],
      "name": "Upgraded",
      "type": "event"
    },
    {
      "anonymous": false,
      "inputs": [
        {
          "indexed": true,
          "internalType": "address",
          "name": "newImplementation",
          "type": "address"
        },
        {
          "indexed": false,
          "internalType": "uint256",
          "name": "timestamp",
          "type": "uint256"
        },
        {
          "indexed": false,
          "internalType": "string",
          "name": "reason",
          "type": "string"
        }
      ],
      "name": "Upgraded",
      "type": "event"
    },
    {
      "stateMutability": "payable",
      "type": "fallback"
    },
    {
      "inputs": [],
      "name": "MAX_REASON_LENGTH",
      "outputs": [
        {
          "internalType": "uint256",
          "name": "",
          "type": "uint256"
        }
      ],
      "stateMutability": "view",
      "type": "function"
    },
    {
      "inputs": [],
      "name": "MIN_UPGRADE_DELAY",
      "outputs": [
        {
          "internalType": "uint256",
          "name": "",
          "type": "uint256"
        }
      ],
      "stateMutability": "view",
      "type": "function"
    },
    {
      "inputs": [],
      "name": "acceptOwnership",
      "outputs": [],
      "stateMutability": "nonpayable",
      "type": "function"
    },
    {
      "inputs": [
        {
          "internalType": "bytes32",
          "name": "proposalId",
          "type": "bytes32"
        }
      ],
      "name": "cancelUpgrade",
      "outputs": [],
      "stateMutability": "nonpayable",
      "type": "function"
    },
    {
      "inputs": [],
      "name": "implementation",
      "outputs": [
        {
          "internalType": "address",
          "name": "",
          "type": "address"
        }
      ],
      "stateMutability": "view",
      "type": "function"
    },
    {
      "inputs": [
        {
          "internalType": "bytes32",
          "name": "",
          "type": "bytes32"
        }
      ],
      "name": "isProposalActive",
      "outputs": [
        {
          "internalType": "bool",
          "name": "",
          "type": "bool"
        }
      ],
      "stateMutability": "view",
      "type": "function"
    },
    {
      "inputs": [],
      "name": "owner",
      "outputs": [
        {
          "internalType": "address",
          "name": "",
          "type": "address"
        }
      ],
      "stateMutability": "view",
      "type": "function"
    },
    {
      "inputs": [],
      "name": "pendingOwner",
      "outputs": [
        {
          "internalType": "address",
          "name": "",
          "type": "address"
        }
      ],
      "stateMutability": "view",
      "type": "function"
    },
    {
      "inputs": [
        {
          "internalType": "address",
          "name": "newImplementation",
          "type": "address"
        },
        {
          "internalType": "bytes",
          "name": "data",
          "type": "bytes"
        },
        {
          "internalType": "string",
          "name": "reason",
          "type": "string"
        }
      ],
      "name": "proposeUpgrade",
      "outputs": [
        {
          "internalType": "bytes32",
          "name": "proposalId",
          "type": "bytes32"
        }
      ],
      "stateMutability": "nonpayable",
      "type": "function"
    },
    {
      "inputs": [],
      "name": "renounceOwnership",
      "outputs": [],
      "stateMutability": "nonpayable",
      "type": "function"
    },
    {
      "inputs": [
        {
          "internalType": "uint256",
          "name": "newDelay",
          "type": "uint256"
        }
      ],
      "name": "setUpgradeDelay",
      "outputs": [],
      "stateMutability": "nonpayable",
      "type": "function"
    },
    {
      "inputs": [],
      "name": "timelock",
      "outputs": [
        {
          "internalType": "contract TimelockController",
          "name": "",
          "type": "address"
        }
      ],
      "stateMutability": "view",
      "type": "function"
    },
    {
      "inputs": [
        {
          "internalType": "address",
          "name": "newOwner",
          "type": "address"
        }
      ],
      "name": "transferOwnership",
      "outputs": [],
      "stateMutability": "nonpayable",
      "type": "function"
    },
    {
      "inputs": [],
      "name": "upgradeDelay",
      "outputs": [
        {
          "internalType": "uint256",
          "name": "",
          "type": "uint256"
        }
      ],
      "stateMutability": "view",
      "type": "function"
    },
    {
      "inputs": [
        {
          "internalType": "address",
          "name": "newImplementation",
          "type": "address"
        },
        {
          "internalType": "bytes",
          "name": "data",
          "type": "bytes"
        },
        {
          "internalType": "string",
          "name": "reason",
          "type": "string"
        }
      ],
      "name": "upgradeToAndCall",
      "outputs": [],
      "stateMutability": "payable",
      "type": "function"
    },
    {
      "stateMutability": "payable",
      "type": "receive"
    }
  ],
  "bytecode": "0x60806040523480156200001157600080fd5b506040516200619238038062006192833981810160405281019062000037919062000bbd565b8284836200004c82826200055460201b60201c565b5050600073ffffffffffffffffffffffffffffffffffffffff168173ffffffffffffffffffffffffffffffffffffffff1603620000c35760006040517f1e4fbdf7000000000000000000000000000000000000000000000000000000008152600401620000ba919062000c5f565b60405180910390fd5b620000d481620005e160201b60201c565b5060008473ffffffffffffffffffffffffffffffffffffffff163b1162000132576040517f08c379a0000000000000000000000000000000000000000000000000000000008152600401620001299062000cdd565b60405180910390fd5b600073ffffffffffffffffffffffffffffffffffffffff168373ffffffffffffffffffffffffffffffffffffffff1603620001a4576040517f08c379a00000000000000000000000000000000000000000000000000000000081526004016200019b9062000d4f565b60405180910390fd5b62015180811015620001ed576040517f08c379a0000000000000000000000000000000000000000000000000000000008152600401620001e49062000dc1565b60405180910390fd5b60007f01ffc9a70000000000000000000000000000000000000000000000000000000090508060e01c63ffffffff1660001b620002507f1c1dd9c21b9b0304c3e51ed944f51ba24657e8d6da2c799b02b67729067707d26200061a60201b60201c565b600001819055506000600167ffffffffffffffff81111562000277576200027662000a1e565b5b604051908082528060200260200182016040528015620002a65781602001602082028036833780820191505090505b5090503081600081518110620002c157620002c062000de3565b5b602002602001019073ffffffffffffffffffffffffffffffffffffffff16908173ffffffffffffffffffffffffffffffffffffffff16815250506000600167ffffffffffffffff8111156200031b576200031a62000a1e565b5b6040519080825280602002602001820160405280156200034a5781602001602082028036833780820191505090505b509050858160008151811062000365576200036462000de3565b5b602002602001019073ffffffffffffffffffffffffffffffffffffffff16908173ffffffffffffffffffffffffffffffffffffffff168152505083818388604051620003b1906200097c565b620003c0949392919062000ef1565b604051809103906000f080158015620003dd573d6000803e3d6000fd5b50600260006101000a81548173ffffffffffffffffffffffffffffffffffffffff021916908373ffffffffffffffffffffffffffffffffffffffff160217905550600260009054906101000a900473ffffffffffffffffffffffffffffffffffffffff16620004727f3543d641686bcc8e3d2ee264ce9e5aa0f6056e71621a87e7a877d2bfc1d35b176200062460201b60201c565b60000160006101000a81548173ffffffffffffffffffffffffffffffffffffffff021916908373ffffffffffffffffffffffffffffffffffffffff160217905550620004e6600260009054906101000a900473ffffffffffffffffffffffffffffffffffffffff16620005e160201b60201c565b836003819055508573ffffffffffffffffffffffffffffffffffffffff168773ffffffffffffffffffffffffffffffffffffffff167f3cd5ec01b1ae7cfec6ca1863e2cd6aa25d6d1702825803ff2b7cc95010fffdc260405160405180910390a35050505050505062000fb2565b62000565826200062e60201b60201c565b8173ffffffffffffffffffffffffffffffffffffffff167fbc7cd75a20ee27fd9adebab32041f755214dbc6bffa90cc0225b39da2e5c2d3b60405160405180910390a2600081511115620005cc57620005c582826200070660201b60201c565b50620005dd565b620005dc6200079660201b60201c565b5b5050565b600160006101000a81549073ffffffffffffffffffffffffffffffffffffffff02191690556200061781620007d460201b60201c565b50565b6000819050919050565b6000819050919050565b60008173ffffffffffffffffffffffffffffffffffffffff163b036200068d57806040517f4c9c8ce300000000000000000000000000000000000000000000000000000000815260040162000684919062000c5f565b60405180910390fd5b80620006c27f360894a13ba1a3210667c828492db98dca3e2076cc3735a920a3ca505d382bbc60001b6200062460201b60201c565b60000160006101000a81548173ffffffffffffffffffffffffffffffffffffffff021916908373ffffffffffffffffffffffffffffffffffffffff16021790555050565b60606000808473ffffffffffffffffffffffffffffffffffffffff168460405162000732919062000f99565b600060405180830381855af49150503d80600081146200076f576040519150601f19603f3d011682016040523d82523d6000602084013e62000774565b606091505b50915091506200078c8583836200089860201b60201c565b9250505092915050565b6000341115620007d2576040517fb398979f00000000000000000000000000000000000000000000000000000000815260040160405180910390fd5b565b60008060009054906101000a900473ffffffffffffffffffffffffffffffffffffffff169050816000806101000a81548173ffffffffffffffffffffffffffffffffffffffff021916908373ffffffffffffffffffffffffffffffffffffffff1602179055508173ffffffffffffffffffffffffffffffffffffffff168173ffffffffffffffffffffffffffffffffffffffff167f8be0079c531659141344cd1fd0a4f28419497f9722a3daafe3b4186f6b6457e060405160405180910390a35050565b606082620008b757620008b1826200093660201b60201c565b6200092e565b60008251148015620008e0575060008473ffffffffffffffffffffffffffffffffffffffff163b145b156200092557836040517f9996b3150000000000000000000000000000000000000000000000000000000081526004016200091c919062000c5f565b60405180910390fd5b8190506200092f565b5b9392505050565b6000815111156200094a5780518082602001fd5b6040517fd6bda27500000000000000000000000000000000000000000000000000000000815260040160405180910390fd5b6132668062002f2c83390190565b6000604051905090565b600080fd5b600080fd5b600073ffffffffffffffffffffffffffffffffffffffff82169050919050565b6000620009cb826200099e565b9050919050565b620009dd81620009be565b8114620009e957600080fd5b50565b600081519050620009fd81620009d2565b92915050565b600080fd5b600080fd5b6000601f19601f8301169050919050565b7f4e487b7100000000000000000000000000000000000000000000000000000000600052604160045260246000fd5b62000a588262000a0d565b810181811067ffffffffffffffff8211171562000a7a5762000a7962000a1e565b5b80604052505050565b600062000a8f6200098a565b905062000a9d828262000a4d565b919050565b600067ffffffffffffffff82111562000ac05762000abf62000a1e565b5b62000acb8262000a0d565b9050602081019050919050565b60005b8381101562000af857808201518184015260208101905062000adb565b60008484015250505050565b600062000b1b62000b158462000aa2565b62000a83565b90508281526020810184848401111562000b3a5762000b3962000a08565b5b62000b4784828562000ad8565b509392505050565b600082601f83011262000b675762000b6662000a03565b5b815162000b7984826020860162000b04565b91505092915050565b6000819050919050565b62000b978162000b82565b811462000ba357600080fd5b50565b60008151905062000bb78162000b8c565b92915050565b6000806000806080858703121562000bda5762000bd962000994565b5b600062000bea87828801620009ec565b945050602062000bfd87828801620009ec565b935050604085015167ffffffffffffffff81111562000c215762000c2062000999565b5b62000c2f8782880162000b4f565b925050606062000c428782880162000ba6565b91505092959194509250565b62000c5981620009be565b82525050565b600060208201905062000c76600083018462000c4e565b92915050565b600082825260208201905092915050565b7f4c6f6769632061646472657373206973206e6f74206120636f6e747261637400600082015250565b600062000cc5601f8362000c7c565b915062000cd28262000c8d565b602082019050919050565b6000602082019050818103600083015262000cf88162000cb6565b9050919050565b7f41646d696e20616464726573732063616e6e6f74206265207a65726f00000000600082015250565b600062000d37601c8362000c7c565b915062000d448262000cff565b602082019050919050565b6000602082019050818103600083015262000d6a8162000d28565b9050919050565b7f496e697469616c2064656c617920746f6f2073686f7274000000000000000000600082015250565b600062000da960178362000c7c565b915062000db68262000d71565b602082019050919050565b6000602082019050818103600083015262000ddc8162000d9a565b9050919050565b7f4e487b7100000000000000000000000000000000000000000000000000000000600052603260045260246000fd5b62000e1d8162000b82565b82525050565b600081519050919050565b600082825260208201905092915050565b6000819050602082019050919050565b62000e5a81620009be565b82525050565b600062000e6e838362000e4f565b60208301905092915050565b6000602082019050919050565b600062000e948262000e23565b62000ea0818562000e2e565b935062000ead8362000e3f565b8060005b8381101562000ee457815162000ec8888262000e60565b975062000ed58362000e7a565b92505060018101905062000eb1565b5085935050505092915050565b600060808201905062000f08600083018762000e12565b818103602083015262000f1c818662000e87565b9050818103604083015262000f32818562000e87565b905062000f43606083018462000c4e565b95945050505050565b600081519050919050565b600081905092915050565b600062000f6f8262000f4c565b62000f7b818562000f57565b935062000f8d81856020860162000ad8565b80840191505092915050565b600062000fa7828462000f62565b915081905092915050565b611f6a8062000fc26000396000f3fe6080604052600436106100ec5760003560e01c80639606d2011161008a578063d33219b411610059578063d33219b4146102bf578063e30c3978146102ea578063e68cba8014610315578063f2fde38b14610340576100f3565b80639606d20114610212578063a29671841461023b578063a2f628e414610278578063b81756fe146102a3576100f3565b8063715018a6116100c6578063715018a61461018e57806379ba5097146101a55780637e48d4ea146101bc5780638da5cb5b146101e7576100f3565b8063081c97ca146100fd578063337781ea1461013a5780635c60da1b14610163576100f3565b366100f357005b6100fb610369565b005b34801561010957600080fd5b50610124600480360381019061011f91906114b4565b61037b565b6040516101319190611558565b60405180910390f35b34801561014657600080fd5b50610161600480360381019061015c919061159f565b610618565b005b34801561016f57600080fd5b50610178610760565b60405161018591906115db565b60405180910390f35b34801561019a57600080fd5b506101a361076f565b005b3480156101b157600080fd5b506101ba610783565b005b3480156101c857600080fd5b506101d1610812565b6040516101de919061160f565b60405180910390f35b3480156101f357600080fd5b506101fc610818565b60405161020991906115db565b60405180910390f35b34801561021e57600080fd5b5061023960048036038101906102349190611656565b610841565b005b34801561024757600080fd5b50610262600480360381019061025d919061159f565b6108d4565b60405161026f919061169e565b60405180910390f35b34801561028457600080fd5b5061028d6108f4565b60405161029a919061160f565b60405180910390f35b6102bd60048036038101906102b891906114b4565b6108fa565b005b3480156102cb57600080fd5b506102d46109f2565b6040516102e19190611718565b60405180910390f35b3480156102f657600080fd5b506102ff610a18565b60405161030c91906115db565b60405180910390f35b34801561032157600080fd5b5061032a610a42565b604051610337919061160f565b60405180910390f35b34801561034c57600080fd5b5061036760048036038101906103629190611733565b610a49565b005b610379610374610af6565b610b05565b565b6000610385610b2b565b60008473ffffffffffffffffffffffffffffffffffffffff163b116103df576040517f08c379a00000000000000000000000000000000000000000000000000000000081526004016103d6906117e3565b60405180910390fd5b600082511180156103f35750610100825111155b610432576040517f08c379a00000000000000000000000000000000000000000000000000000000081526004016104299061184f565b60405180910390fd5b61043c8484610bb2565b60006003544261044c919061189e565b9050600085858560405160240161046593929190611995565b6040516020818303038152906040527fb81756fe000000000000000000000000000000000000000000000000000000007bffffffffffffffffffffffffffffffffffffffffffffffffffffffff19166020820180517bffffffffffffffffffffffffffffffffffffffffffffffffffffffff8381831617835250505050905060008060001b90506000426040516020016104ff91906119fb565b604051602081830303815290604052805190602001209050306000848387604051602001610531959493929190611a5e565b604051602081830303815290604052805190602001209450600260009054906101000a900473ffffffffffffffffffffffffffffffffffffffff1673ffffffffffffffffffffffffffffffffffffffff166301d5062a3060008686868a6040518763ffffffff1660e01b81526004016105af96959493929190611ae9565b600060405180830381600087803b1580156105c957600080fd5b505af11580156105dd573d6000803e3d6000fd5b5050505060016004600087815260200190815260200160002060006101000a81548160ff021916908315150217905550505050509392505050565b610620610b2b565b6004600082815260200190815260200160002060009054906101000a900460ff16610680576040517f08c379a000000000000000000000000000000000000000000000000000000000815260040161067790611b9d565b60405180910390fd5b600260009054906101000a900473ffffffffffffffffffffffffffffffffffffffff1673ffffffffffffffffffffffffffffffffffffffff1663c4d252f5826040518263ffffffff1660e01b81526004016106db9190611558565b600060405180830381600087803b1580156106f557600080fd5b505af1158015610709573d6000803e3d6000fd5b505050506004600082815260200190815260200160002060006101000a81549060ff0219169055807f3581f2526e53a276effa5116f0579562b23947cbd75fbabdeb6049aa7f5c50e660405160405180910390a250565b600061076a610af6565b905090565b610777610b2b565b6107816000610cbb565b565b600061078d610cec565b90508073ffffffffffffffffffffffffffffffffffffffff166107ae610a18565b73ffffffffffffffffffffffffffffffffffffffff161461080657806040517f118cdaa70000000000000000000000000000000000000000000000000000000081526004016107fd91906115db565b60405180910390fd5b61080f81610cbb565b50565b60035481565b60008060009054906101000a900473ffffffffffffffffffffffffffffffffffffffff16905090565b610849610b2b565b6201518081101561088f576040517f08c379a000000000000000000000000000000000000000000000000000000000815260040161088690611c09565b60405180910390fd5b7f14cde1f31e7fbf6aa92251130e46199810a9e7ed92e83c081a8b4c2e28fbb0f3600354826040516108c2929190611c29565b60405180910390a18060038190555050565b60046020528060005260406000206000915054906101000a900460ff1681565b61010081565b600260009054906101000a900473ffffffffffffffffffffffffffffffffffffffff1673ffffffffffffffffffffffffffffffffffffffff163373ffffffffffffffffffffffffffffffffffffffff161461098a576040517f08c379a000000000000000000000000000000000000000000000000000000000815260040161098190611c9e565b60405180910390fd5b6109948383610cf4565b61099d83610d67565b8273ffffffffffffffffffffffffffffffffffffffff167f144ac4af317e04f6d9d18ad7242d9e402b96a5745473b2139f47719f20eabcf142836040516109e5929190611cbe565b60405180910390a2505050565b600260009054906101000a900473ffffffffffffffffffffffffffffffffffffffff1681565b6000600160009054906101000a900473ffffffffffffffffffffffffffffffffffffffff16905090565b6201518081565b610a51610b2b565b80600160006101000a81548173ffffffffffffffffffffffffffffffffffffffff021916908373ffffffffffffffffffffffffffffffffffffffff1602179055508073ffffffffffffffffffffffffffffffffffffffff16610ab1610818565b73ffffffffffffffffffffffffffffffffffffffff167f38d16b8cac22d99fc7c124b9cd0de2d3fa1faef420bfe791d8c362d765e2270060405160405180910390a350565b6000610b00610ed4565b905090565b3660008037600080366000845af43d6000803e8060008114610b26573d6000f35b3d6000fd5b610b33610cec565b73ffffffffffffffffffffffffffffffffffffffff16610b51610818565b73ffffffffffffffffffffffffffffffffffffffff1614610bb057610b74610cec565b6040517f118cdaa7000000000000000000000000000000000000000000000000000000008152600401610ba791906115db565b60405180910390fd5b565b600481511015610bf7576040517f08c379a0000000000000000000000000000000000000000000000000000000008152600401610bee90611d3a565b60405180910390fd5b6000602082015190507ffe4b84df33a53e6df49f1f20eb305d77b083ae12f6509fb09f5dd11efd82e3037bffffffffffffffffffffffffffffffffffffffffffffffffffffffff1916817bffffffffffffffffffffffffffffffffffffffffffffffffffffffff191603610cb65760006020600484010151905060008111610cb4576040517f08c379a0000000000000000000000000000000000000000000000000000000008152600401610cab90611da6565b60405180910390fd5b505b505050565b600160006101000a81549073ffffffffffffffffffffffffffffffffffffffff0219169055610ce981610f2b565b50565b600033905090565b610cfd82610fef565b8173ffffffffffffffffffffffffffffffffffffffff167fbc7cd75a20ee27fd9adebab32041f755214dbc6bffa90cc0225b39da2e5c2d3b60405160405180910390a2600081511115610d5a57610d5482826110bc565b50610d63565b610d62611140565b5b5050565b60008173ffffffffffffffffffffffffffffffffffffffff163b11610dc1576040517f08c379a0000000000000000000000000000000000000000000000000000000008152600401610db8906117e3565b60405180910390fd5b6000807f1c1dd9c21b9b0304c3e51ed944f51ba24657e8d6da2c799b02b67729067707d2905080549150600060e01b827bffffffffffffffffffffffffffffffffffffffffffffffffffffffff191614610ecf578273ffffffffffffffffffffffffffffffffffffffff166301ffc9a7836040518263ffffffff1660e01b8152600401610e4e9190611e01565b602060405180830381865afa158015610e6b573d6000803e3d6000fd5b505050506040513d601f19601f82011682018060405250810190610e8f9190611e48565b610ece576040517f08c379a0000000000000000000000000000000000000000000000000000000008152600401610ec590611ec1565b60405180910390fd5b5b505050565b6000610f027f360894a13ba1a3210667c828492db98dca3e2076cc3735a920a3ca505d382bbc60001b61117d565b60000160009054906101000a900473ffffffffffffffffffffffffffffffffffffffff16905090565b60008060009054906101000a900473ffffffffffffffffffffffffffffffffffffffff169050816000806101000a81548173ffffffffffffffffffffffffffffffffffffffff021916908373ffffffffffffffffffffffffffffffffffffffff1602179055508173ffffffffffffffffffffffffffffffffffffffff168173ffffffffffffffffffffffffffffffffffffffff167f8be0079c531659141344cd1fd0a4f28419497f9722a3daafe3b4186f6b6457e060405160405180910390a35050565b60008173ffffffffffffffffffffffffffffffffffffffff163b0361104b57806040517f4c9c8ce300000000000000000000000000000000000000000000000000000000815260040161104291906115db565b60405180910390fd5b806110787f360894a13ba1a3210667c828492db98dca3e2076cc3735a920a3ca505d382bbc60001b61117d565b60000160006101000a81548173ffffffffffffffffffffffffffffffffffffffff021916908373ffffffffffffffffffffffffffffffffffffffff16021790555050565b60606000808473ffffffffffffffffffffffffffffffffffffffff16846040516110e69190611f1d565b600060405180830381855af49150503d8060008114611121576040519150601f19603f3d011682016040523d82523d6000602084013e611126565b606091505b5091509150611136858383611187565b9250505092915050565b600034111561117b576040517fb398979f00000000000000000000000000000000000000000000000000000000815260040160405180910390fd5b565b6000819050919050565b60608261119c5761119782611216565b61120e565b600082511480156111c4575060008473ffffffffffffffffffffffffffffffffffffffff163b145b1561120657836040517f9996b3150000000000000000000000000000000000000000000000000000000081526004016111fd91906115db565b60405180910390fd5b81905061120f565b5b9392505050565b6000815111156112295780518082602001fd5b6040517fd6bda27500000000000000000000000000000000000000000000000000000000815260040160405180910390fd5b6000604051905090565b600080fd5b600080fd5b600073ffffffffffffffffffffffffffffffffffffffff82169050919050565b600061129a8261126f565b9050919050565b6112aa8161128f565b81146112b557600080fd5b50565b6000813590506112c7816112a1565b92915050565b600080fd5b600080fd5b6000601f19601f8301169050919050565b7f4e487b7100000000000000000000000000000000000000000000000000000000600052604160045260246000fd5b611320826112d7565b810181811067ffffffffffffffff8211171561133f5761133e6112e8565b5b80604052505050565b600061135261125b565b905061135e8282611317565b919050565b600067ffffffffffffffff82111561137e5761137d6112e8565b5b611387826112d7565b9050602081019050919050565b82818337600083830152505050565b60006113b66113b184611363565b611348565b9050828152602081018484840111156113d2576113d16112d2565b5b6113dd848285611394565b509392505050565b600082601f8301126113fa576113f96112cd565b5b813561140a8482602086016113a3565b91505092915050565b600067ffffffffffffffff82111561142e5761142d6112e8565b5b611437826112d7565b9050602081019050919050565b600061145761145284611413565b611348565b905082815260208101848484011115611473576114726112d2565b5b61147e848285611394565b509392505050565b600082601f83011261149b5761149a6112cd565b5b81356114ab848260208601611444565b91505092915050565b6000806000606084860312156114cd576114cc611265565b5b60006114db868287016112b8565b935050602084013567ffffffffffffffff8111156114fc576114fb61126a565b5b611508868287016113e5565b925050604084013567ffffffffffffffff8111156115295761152861126a565b5b61153586828701611486565b9150509250925092565b6000819050919050565b6115528161153f565b82525050565b600060208201905061156d6000830184611549565b92915050565b61157c8161153f565b811461158757600080fd5b50565b60008135905061159981611573565b92915050565b6000602082840312156115b5576115b4611265565b5b60006115c38482850161158a565b91505092915050565b6115d58161128f565b82525050565b60006020820190506115f060008301846115cc565b92915050565b6000819050919050565b611609816115f6565b82525050565b60006020820190506116246000830184611600565b92915050565b611633816115f6565b811461163e57600080fd5b50565b6000813590506116508161162a565b92915050565b60006020828403121561166c5761166b611265565b5b600061167a84828501611641565b91505092915050565b60008115159050919050565b61169881611683565b82525050565b60006020820190506116b3600083018461168f565b92915050565b6000819050919050565b60006116de6116d96116d48461126f565b6116b9565b61126f565b9050919050565b60006116f0826116c3565b9050919050565b6000611702826116e5565b9050919050565b611712816116f7565b82525050565b600060208201905061172d6000830184611709565b92915050565b60006020828403121561174957611748611265565b5b6000611757848285016112b8565b91505092915050565b600082825260208201905092915050565b7f4e657720696d706c656d656e746174696f6e206973206e6f74206120636f6e7460008201527f7261637400000000000000000000000000000000000000000000000000000000602082015250565b60006117cd602483611760565b91506117d882611771565b604082019050919050565b600060208201905081810360008301526117fc816117c0565b9050919050565b7f496e76616c696420726561736f6e206c656e6774680000000000000000000000600082015250565b6000611839601583611760565b915061184482611803565b602082019050919050565b600060208201905081810360008301526118688161182c565b9050919050565b7f4e487b7100000000000000000000000000000000000000000000000000000000600052601160045260246000fd5b60006118a9826115f6565b91506118b4836115f6565b92508282019050808211156118cc576118cb61186f565b5b92915050565b600081519050919050565b600082825260208201905092915050565b60005b8381101561190c5780820151818401526020810190506118f1565b60008484015250505050565b6000611923826118d2565b61192d81856118dd565b935061193d8185602086016118ee565b611946816112d7565b840191505092915050565b600081519050919050565b600061196782611951565b6119718185611760565b93506119818185602086016118ee565b61198a816112d7565b840191505092915050565b60006060820190506119aa60008301866115cc565b81810360208301526119bc8185611918565b905081810360408301526119d0818461195c565b9050949350505050565b6000819050919050565b6119f56119f0826115f6565b6119da565b82525050565b6000611a0782846119e4565b60208201915081905092915050565b6000819050919050565b600060ff82169050919050565b6000611a48611a43611a3e84611a16565b6116b9565b611a20565b9050919050565b611a5881611a2d565b82525050565b600060a082019050611a7360008301886115cc565b611a806020830187611a4f565b8181036040830152611a928186611918565b9050611aa16060830185611549565b611aae6080830184611600565b9695505050505050565b6000611ad3611ace611ac984611a16565b6116b9565b6115f6565b9050919050565b611ae381611ab8565b82525050565b600060c082019050611afe60008301896115cc565b611b0b6020830188611ada565b8181036040830152611b1d8187611918565b9050611b2c6060830186611549565b611b396080830185611549565b611b4660a0830184611600565b979650505050505050565b7f50726f706f73616c206973206e6f742061637469766500000000000000000000600082015250565b6000611b87601683611760565b9150611b9282611b51565b602082019050919050565b60006020820190508181036000830152611bb681611b7a565b9050919050565b7f44656c617920746f6f2073686f72740000000000000000000000000000000000600082015250565b6000611bf3600f83611760565b9150611bfe82611bbd565b602082019050919050565b60006020820190508181036000830152611c2281611be6565b9050919050565b6000604082019050611c3e6000830185611600565b611c4b6020830184611600565b9392505050565b7f556e617574686f72697a65640000000000000000000000000000000000000000600082015250565b6000611c88600c83611760565b9150611c9382611c52565b602082019050919050565b60006020820190508181036000830152611cb781611c7b565b9050919050565b6000604082019050611cd36000830185611600565b8181036020830152611ce5818461195c565b90509392505050565b7f496e76616c69642063616c6c6461746100000000000000000000000000000000600082015250565b6000611d24601083611760565b9150611d2f82611cee565b602082019050919050565b60006020820190508181036000830152611d5381611d17565b9050919050565b7f496e697469616c20737570706c79206d75737420626520706f73697469766500600082015250565b6000611d90601f83611760565b9150611d9b82611d5a565b602082019050919050565b60006020820190508181036000830152611dbf81611d83565b9050919050565b60007fffffffff0000000000000000000000000000000000000000000000000000000082169050919050565b611dfb81611dc6565b82525050565b6000602082019050611e166000830184611df2565b92915050565b611e2581611683565b8114611e3057600080fd5b50565b600081519050611e4281611e1c565b92915050565b600060208284031215611e5e57611e5d611265565b5b6000611e6c84828501611e33565b91505092915050565b7f496e74657266616365206e6f7420737570706f72746564000000000000000000600082015250565b6000611eab601783611760565b9150611eb682611e75565b602082019050919050565b60006020820190508181036000830152611eda81611e9e565b9050919050565b600081905092915050565b6000611ef7826118d2565b611f018185611ee1565b9350611f118185602086016118ee565b80840191505092915050565b6000611f298284611eec565b91508190509291505056fea2646970667358221220533d9577b2d07da081836bb85ea9d7befcc1eab542f90cea09da2fc6f3d48a8264736f6c6343000818003360806040523480156200001157600080fd5b5060405162003266380380620032668339818101604052810190620000379190620005a8565b6200004c6000801b306200020a60201b60201c565b50600073ffffffffffffffffffffffffffffffffffffffff168173ffffffffffffffffffffffffffffffffffffffff16146200009957620000976000801b826200020a60201b60201c565b505b60005b83518110156200015257620000f57fb09aa5aeb3702cfd50b6b62bc4532604938f21248a27a1d5ca736082b6819cc1858381518110620000e157620000e062000658565b5b60200260200101516200020a60201b60201c565b50620001457ffd643c72710c63c0180259aba6b2d05451e3591a24e58b62239378085726f78385838151811062000131576200013062000658565b5b60200260200101516200020a60201b60201c565b508060010190506200009c565b5060005b8251811015620001bc57620001af7fd8aa0f3194971a2a116679f7c2090f6939c8d4e01a2a8d7e41d55e5351469e638483815181106200019b576200019a62000658565b5b60200260200101516200020a60201b60201c565b5080600101905062000156565b50836002819055507f11c24f4ead16507c69ac467fbd5e4eed5fb5c699626d2cc6d66421df253886d5600085604051620001f8929190620006e5565b60405180910390a15050505062000712565b60006200021e83836200030d60201b60201c565b6200030257600160008085815260200190815260200160002060000160008473ffffffffffffffffffffffffffffffffffffffff1673ffffffffffffffffffffffffffffffffffffffff16815260200190815260200160002060006101000a81548160ff0219169083151502179055506200029e6200037760201b60201c565b73ffffffffffffffffffffffffffffffffffffffff168273ffffffffffffffffffffffffffffffffffffffff16847f2f8788117e7eff1d82e926ec794901d17c78024a50270940304540a733656f0d60405160405180910390a46001905062000307565b600090505b92915050565b600080600084815260200190815260200160002060000160008373ffffffffffffffffffffffffffffffffffffffff1673ffffffffffffffffffffffffffffffffffffffff16815260200190815260200160002060009054906101000a900460ff16905092915050565b600033905090565b6000604051905090565b600080fd5b600080fd5b6000819050919050565b620003a88162000393565b8114620003b457600080fd5b50565b600081519050620003c8816200039d565b92915050565b600080fd5b6000601f19601f8301169050919050565b7f4e487b7100000000000000000000000000000000000000000000000000000000600052604160045260246000fd5b6200041e82620003d3565b810181811067ffffffffffffffff8211171562000440576200043f620003e4565b5b80604052505050565b6000620004556200037f565b905062000463828262000413565b919050565b600067ffffffffffffffff821115620004865762000485620003e4565b5b602082029050602081019050919050565b600080fd5b600073ffffffffffffffffffffffffffffffffffffffff82169050919050565b6000620004c9826200049c565b9050919050565b620004db81620004bc565b8114620004e757600080fd5b50565b600081519050620004fb81620004d0565b92915050565b600062000518620005128462000468565b62000449565b905080838252602082019050602084028301858111156200053e576200053d62000497565b5b835b818110156200056b5780620005568882620004ea565b84526020840193505060208101905062000540565b5050509392505050565b600082601f8301126200058d576200058c620003ce565b5b81516200059f84826020860162000501565b91505092915050565b60008060008060808587031215620005c557620005c462000389565b5b6000620005d587828801620003b7565b945050602085015167ffffffffffffffff811115620005f957620005f86200038e565b5b620006078782880162000575565b935050604085015167ffffffffffffffff8111156200062b576200062a6200038e565b5b620006398782880162000575565b92505060606200064c87828801620004ea565b91505092959194509250565b7f4e487b7100000000000000000000000000000000000000000000000000000000600052603260045260246000fd5b6000819050919050565b6000819050919050565b6000620006bc620006b6620006b08462000687565b62000691565b62000393565b9050919050565b620006ce816200069b565b82525050565b620006df8162000393565b82525050565b6000604082019050620006fc6000830185620006c3565b6200070b6020830184620006d4565b9392505050565b612b4480620007226000396000f3fe6080604052600436106101bb5760003560e01c80638065657f116100ec578063bc197c811161008a578063d547741f11610064578063d547741f1461069e578063e38335e5146106c7578063f23a6e61146106e3578063f27a0c9214610720576101c2565b8063bc197c81146105fb578063c4d252f514610638578063d45c443514610661576101c2565b806391d14854116100c657806391d148541461052b578063a217fddf14610568578063b08e51c014610593578063b1c5f427146105be576101c2565b80638065657f1461049a5780638f2a0bb0146104d75780638f61f4f514610500576101c2565b80632ab0f5291161015957806336568abe1161013357806336568abe146103ce578063584b153e146103f757806364d62353146104345780637958004c1461045d576101c2565b80632ab0f5291461032b5780632f2ff15d1461036857806331d5075014610391576101c2565b8063134008d311610195578063134008d31461025857806313bc9f2014610274578063150b7a02146102b1578063248a9ca3146102ee576101c2565b806301d5062a146101c757806301ffc9a7146101f057806307bd02651461022d576101c2565b366101c257005b600080fd5b3480156101d357600080fd5b506101ee60048036038101906101e99190611a0a565b61074b565b005b3480156101fc57600080fd5b5061021760048036038101906102129190611b11565b610823565b6040516102249190611b59565b60405180910390f35b34801561023957600080fd5b50610242610835565b60405161024f9190611b83565b60405180910390f35b610272600480360381019061026d9190611b9e565b610859565b005b34801561028057600080fd5b5061029b60048036038101906102969190611c38565b610916565b6040516102a89190611b59565b60405180910390f35b3480156102bd57600080fd5b506102d860048036038101906102d39190611da6565b61094f565b6040516102e59190611e38565b60405180910390f35b3480156102fa57600080fd5b5061031560048036038101906103109190611c38565b610963565b6040516103229190611b83565b60405180910390f35b34801561033757600080fd5b50610352600480360381019061034d9190611c38565b610982565b60405161035f9190611b59565b60405180910390f35b34801561037457600080fd5b5061038f600480360381019061038a9190611e53565b6109ba565b005b34801561039d57600080fd5b506103b860048036038101906103b39190611c38565b6109dc565b6040516103c59190611b59565b60405180910390f35b3480156103da57600080fd5b506103f560048036038101906103f09190611e53565b610a15565b005b34801561040357600080fd5b5061041e60048036038101906104199190611c38565b610a90565b60405161042b9190611b59565b60405180910390f35b34801561044057600080fd5b5061045b60048036038101906104569190611e93565b610afd565b005b34801561046957600080fd5b50610484600480360381019061047f9190611c38565b610bbf565b6040516104919190611f37565b60405180910390f35b3480156104a657600080fd5b506104c160048036038101906104bc9190611b9e565b610c0e565b6040516104ce9190611b83565b60405180910390f35b3480156104e357600080fd5b506104fe60048036038101906104f99190612054565b610c4d565b005b34801561050c57600080fd5b50610515610e0f565b6040516105229190611b83565b60405180910390f35b34801561053757600080fd5b50610552600480360381019061054d9190611e53565b610e33565b60405161055f9190611b59565b60405180910390f35b34801561057457600080fd5b5061057d610e9d565b60405161058a9190611b83565b60405180910390f35b34801561059f57600080fd5b506105a8610ea4565b6040516105b59190611b83565b60405180910390f35b3480156105ca57600080fd5b506105e560048036038101906105e09190612143565b610ec8565b6040516105f29190611b83565b60405180910390f35b34801561060757600080fd5b50610622600480360381019061061d91906122e2565b610f0d565b60405161062f9190611e38565b60405180910390f35b34801561064457600080fd5b5061065f600480360381019061065a9190611c38565b610f22565b005b34801561066d57600080fd5b5061068860048036038101906106839190611c38565b610ff4565b60405161069591906123c0565b60405180910390f35b3480156106aa57600080fd5b506106c560048036038101906106c09190611e53565b611011565b005b6106e160048036038101906106dc9190612143565b611033565b005b3480156106ef57600080fd5b5061070a600480360381019061070591906123db565b6111f1565b6040516107179190611e38565b60405180910390f35b34801561072c57600080fd5b50610735611206565b60405161074291906123c0565b60405180910390f35b7fb09aa5aeb3702cfd50b6b62bc4532604938f21248a27a1d5ca736082b6819cc161077581611210565b6000610785898989898989610c0e565b90506107918184611224565b6000817f4cf4410cc57040e44862ef0f45f3dd5a5e02db8eb8add648d4b0e236f1d07dca8b8b8b8b8b8a6040516107cd969594939291906124bf565b60405180910390a36000801b841461081857807f20fda5fd27a1ea7bf5b9567f143ac5470bb059374a27e8f67cb44f946f6d03878560405161080f9190611b83565b60405180910390a25b505050505050505050565b600061082e826112f5565b9050919050565b7fd8aa0f3194971a2a116679f7c2090f6939c8d4e01a2a8d7e41d55e5351469e6381565b7fd8aa0f3194971a2a116679f7c2090f6939c8d4e01a2a8d7e41d55e5351469e63610885816000610e33565b61089b5761089a8161089561136f565b611377565b5b60006108ab888888888888610c0e565b90506108b781856113c8565b6108c38888888861147c565b6000817fc2617efa69bab66782fa219543714338489c4e9e178271560a91b82c3f612b588a8a8a8a6040516108fb949392919061251b565b60405180910390a361090c81611501565b5050505050505050565b60006002600381111561092c5761092b611ec0565b5b61093583610bbf565b600381111561094757610946611ec0565b5b149050919050565b600063150b7a0260e01b9050949350505050565b6000806000838152602001908152602001600020600101549050919050565b600060038081111561099757610996611ec0565b5b6109a083610bbf565b60038111156109b2576109b1611ec0565b5b149050919050565b6109c382610963565b6109cc81611210565b6109d68383611571565b50505050565b60008060038111156109f1576109f0611ec0565b5b6109fa83610bbf565b6003811115610a0c57610a0b611ec0565b5b14159050919050565b610a1d61136f565b73ffffffffffffffffffffffffffffffffffffffff168173ffffffffffffffffffffffffffffffffffffffff1614610a81576040517f6697b23200000000000000000000000000000000000000000000000000000000815260040160405180910390fd5b610a8b8282611662565b505050565b600080610a9c83610bbf565b905060016003811115610ab257610ab1611ec0565b5b816003811115610ac557610ac4611ec0565b5b1480610af5575060026003811115610ae057610adf611ec0565b5b816003811115610af357610af2611ec0565b5b145b915050919050565b6000610b0761136f565b90503073ffffffffffffffffffffffffffffffffffffffff168173ffffffffffffffffffffffffffffffffffffffff1614610b7957806040517fe2850c59000000000000000000000000000000000000000000000000000000008152600401610b70919061255b565b60405180910390fd5b7f11c24f4ead16507c69ac467fbd5e4eed5fb5c699626d2cc6d66421df253886d560025483604051610bac929190612576565b60405180910390a1816002819055505050565b600080610bcb83610ff4565b905060008103610bdf576000915050610c09565b60018103610bf1576003915050610c09565b42811115610c03576001915050610c09565b60029150505b919050565b6000868686868686604051602001610c2b9695949392919061259f565b6040516020818303038152906040528051906020012090509695505050505050565b7fb09aa5aeb3702cfd50b6b62bc4532604938f21248a27a1d5ca736082b6819cc1610c7781611210565b878790508a8a9050141580610c925750858590508a8a905014155b15610ce1578989905086869050898990506040517fffb03211000000000000000000000000000000000000000000000000000000008152600401610cd8939291906125fb565b60405180910390fd5b6000610cf38b8b8b8b8b8b8b8b610ec8565b9050610cff8184611224565b60005b8b8b9050811015610dbe5780827f4cf4410cc57040e44862ef0f45f3dd5a5e02db8eb8add648d4b0e236f1d07dca8e8e85818110610d4357610d42612632565b5b9050602002016020810190610d589190612661565b8d8d86818110610d6b57610d6a612632565b5b905060200201358c8c87818110610d8557610d84612632565b5b9050602002810190610d97919061269d565b8c8b604051610dab969594939291906124bf565b60405180910390a3806001019050610d02565b506000801b8414610e0257807f20fda5fd27a1ea7bf5b9567f143ac5470bb059374a27e8f67cb44f946f6d038785604051610df99190611b83565b60405180910390a25b5050505050505050505050565b7fb09aa5aeb3702cfd50b6b62bc4532604938f21248a27a1d5ca736082b6819cc181565b600080600084815260200190815260200160002060000160008373ffffffffffffffffffffffffffffffffffffffff1673ffffffffffffffffffffffffffffffffffffffff16815260200190815260200160002060009054906101000a900460ff16905092915050565b6000801b81565b7ffd643c72710c63c0180259aba6b2d05451e3591a24e58b62239378085726f78381565b60008888888888888888604051602001610ee99897969594939291906129a2565b60405160208183030381529060405280519060200120905098975050505050505050565b600063bc197c8160e01b905095945050505050565b7ffd643c72710c63c0180259aba6b2d05451e3591a24e58b62239378085726f783610f4c81611210565b610f5582610a90565b610fac5781610f646002611754565b610f6e6001611754565b176040517f5ead8eb5000000000000000000000000000000000000000000000000000000008152600401610fa3929190612a10565b60405180910390fd5b6001600083815260200190815260200160002060009055817fbaa1eb22f2a492ba1a5fea61b8df4d27c6c8b5f3971e63bb58fa14ff72eedb7060405160405180910390a25050565b600060016000838152602001908152602001600020549050919050565b61101a82610963565b61102381611210565b61102d8383611662565b50505050565b7fd8aa0f3194971a2a116679f7c2090f6939c8d4e01a2a8d7e41d55e5351469e6361105f816000610e33565b611075576110748161106f61136f565b611377565b5b86869050898990501415806110905750848490508989905014155b156110df578888905085859050888890506040517fffb032110000000000000000000000000000000000000000000000000000000081526004016110d6939291906125fb565b60405180910390fd5b60006110f18a8a8a8a8a8a8a8a610ec8565b90506110fd81856113c8565b60005b8a8a90508110156111db5760008b8b838181106111205761111f612632565b5b90506020020160208101906111359190612661565b905060008a8a8481811061114c5761114b612632565b5b9050602002013590503660008a8a8681811061116b5761116a612632565b5b905060200281019061117d919061269d565b9150915061118d8484848461147c565b84867fc2617efa69bab66782fa219543714338489c4e9e178271560a91b82c3f612b58868686866040516111c4949392919061251b565b60405180910390a350505050806001019050611100565b506111e581611501565b50505050505050505050565b600063f23a6e6160e01b905095945050505050565b6000600254905090565b6112218161121c61136f565b611377565b50565b61122d826109dc565b1561127a578161123d6000611754565b6040517f5ead8eb5000000000000000000000000000000000000000000000000000000008152600401611271929190612a10565b60405180910390fd5b6000611284611206565b9050808210156112cd5781816040517f543366090000000000000000000000000000000000000000000000000000000081526004016112c4929190612576565b60405180910390fd5b81426112d99190612a68565b6001600085815260200190815260200160002081905550505050565b60007f4e2312e0000000000000000000000000000000000000000000000000000000007bffffffffffffffffffffffffffffffffffffffffffffffffffffffff1916827bffffffffffffffffffffffffffffffffffffffffffffffffffffffff1916148061136857506113678261177a565b5b9050919050565b600033905090565b6113818282610e33565b6113c45780826040517fe2517d3f0000000000000000000000000000000000000000000000000000000081526004016113bb929190612a9c565b60405180910390fd5b5050565b6113d182610916565b61141d57816113e06002611754565b6040517f5ead8eb5000000000000000000000000000000000000000000000000000000008152600401611414929190612a10565b60405180910390fd5b6000801b8114158015611436575061143481610982565b155b1561147857806040517f90a9a61800000000000000000000000000000000000000000000000000000000815260040161146f9190611b83565b60405180910390fd5b5050565b6000808573ffffffffffffffffffffffffffffffffffffffff168585856040516114a7929190612af5565b60006040518083038185875af1925050503d80600081146114e4576040519150601f19603f3d011682016040523d82523d6000602084013e6114e9565b606091505b50915091506114f882826117f4565b50505050505050565b61150a81610916565b61155657806115196002611754565b6040517f5ead8eb500000000000000000000000000000000000000000000000000000000815260040161154d929190612a10565b60405180910390fd5b60018060008381526020019081526020016000208190555050565b600061157d8383610e33565b61165757600160008085815260200190815260200160002060000160008473ffffffffffffffffffffffffffffffffffffffff1673ffffffffffffffffffffffffffffffffffffffff16815260200190815260200160002060006101000a81548160ff0219169083151502179055506115f461136f565b73ffffffffffffffffffffffffffffffffffffffff168273ffffffffffffffffffffffffffffffffffffffff16847f2f8788117e7eff1d82e926ec794901d17c78024a50270940304540a733656f0d60405160405180910390a46001905061165c565b600090505b92915050565b600061166e8383610e33565b1561174957600080600085815260200190815260200160002060000160008473ffffffffffffffffffffffffffffffffffffffff1673ffffffffffffffffffffffffffffffffffffffff16815260200190815260200160002060006101000a81548160ff0219169083151502179055506116e661136f565b73ffffffffffffffffffffffffffffffffffffffff168273ffffffffffffffffffffffffffffffffffffffff16847ff6391f5c32d9c69d2a47ea670b442974b53935d1edc7fd64eb21e047a839171b60405160405180910390a46001905061174e565b600090505b92915050565b600081600381111561176957611768611ec0565b5b60ff166001901b60001b9050919050565b60007f7965db0b000000000000000000000000000000000000000000000000000000007bffffffffffffffffffffffffffffffffffffffffffffffffffffffff1916827bffffffffffffffffffffffffffffffffffffffffffffffffffffffff191614806117ed57506117ec82611818565b5b9050919050565b6060826118095761180482611882565b611811565b819050611812565b5b92915050565b60007f01ffc9a7000000000000000000000000000000000000000000000000000000007bffffffffffffffffffffffffffffffffffffffffffffffffffffffff1916827bffffffffffffffffffffffffffffffffffffffffffffffffffffffff1916149050919050565b6000815111156118955780518082602001fd5b6040517fd6bda27500000000000000000000000000000000000000000000000000000000815260040160405180910390fd5b6000604051905090565b600080fd5b600080fd5b600073ffffffffffffffffffffffffffffffffffffffff82169050919050565b6000611906826118db565b9050919050565b611916816118fb565b811461192157600080fd5b50565b6000813590506119338161190d565b92915050565b6000819050919050565b61194c81611939565b811461195757600080fd5b50565b60008135905061196981611943565b92915050565b600080fd5b600080fd5b600080fd5b60008083601f8401126119945761199361196f565b5b8235905067ffffffffffffffff8111156119b1576119b0611974565b5b6020830191508360018202830111156119cd576119cc611979565b5b9250929050565b6000819050919050565b6119e7816119d4565b81146119f257600080fd5b50565b600081359050611a04816119de565b92915050565b600080600080600080600060c0888a031215611a2957611a286118d1565b5b6000611a378a828b01611924565b9750506020611a488a828b0161195a565b965050604088013567ffffffffffffffff811115611a6957611a686118d6565b5b611a758a828b0161197e565b95509550506060611a888a828b016119f5565b9350506080611a998a828b016119f5565b92505060a0611aaa8a828b0161195a565b91505092959891949750929550565b60007fffffffff0000000000000000000000000000000000000000000000000000000082169050919050565b611aee81611ab9565b8114611af957600080fd5b50565b600081359050611b0b81611ae5565b92915050565b600060208284031215611b2757611b266118d1565b5b6000611b3584828501611afc565b91505092915050565b60008115159050919050565b611b5381611b3e565b82525050565b6000602082019050611b6e6000830184611b4a565b92915050565b611b7d816119d4565b82525050565b6000602082019050611b986000830184611b74565b92915050565b60008060008060008060a08789031215611bbb57611bba6118d1565b5b6000611bc989828a01611924565b9650506020611bda89828a0161195a565b955050604087013567ffffffffffffffff811115611bfb57611bfa6118d6565b5b611c0789828a0161197e565b94509450506060611c1a89828a016119f5565b9250506080611c2b89828a016119f5565b9150509295509295509295565b600060208284031215611c4e57611c4d6118d1565b5b6000611c5c848285016119f5565b91505092915050565b600080fd5b6000601f19601f8301169050919050565b7f4e487b7100000000000000000000000000000000000000000000000000000000600052604160045260246000fd5b611cb382611c6a565b810181811067ffffffffffffffff82111715611cd257611cd1611c7b565b5b80604052505050565b6000611ce56118c7565b9050611cf18282611caa565b919050565b600067ffffffffffffffff821115611d1157611d10611c7b565b5b611d1a82611c6a565b9050602081019050919050565b82818337600083830152505050565b6000611d49611d4484611cf6565b611cdb565b905082815260208101848484011115611d6557611d64611c65565b5b611d70848285611d27565b509392505050565b600082601f830112611d8d57611d8c61196f565b5b8135611d9d848260208601611d36565b91505092915050565b60008060008060808587031215611dc057611dbf6118d1565b5b6000611dce87828801611924565b9450506020611ddf87828801611924565b9350506040611df08782880161195a565b925050606085013567ffffffffffffffff811115611e1157611e106118d6565b5b611e1d87828801611d78565b91505092959194509250565b611e3281611ab9565b82525050565b6000602082019050611e4d6000830184611e29565b92915050565b60008060408385031215611e6a57611e696118d1565b5b6000611e78858286016119f5565b9250506020611e8985828601611924565b9150509250929050565b600060208284031215611ea957611ea86118d1565b5b6000611eb78482850161195a565b91505092915050565b7f4e487b7100000000000000000000000000000000000000000000000000000000600052602160045260246000fd5b60048110611f0057611eff611ec0565b5b50565b6000819050611f1182611eef565b919050565b6000611f2182611f03565b9050919050565b611f3181611f16565b82525050565b6000602082019050611f4c6000830184611f28565b92915050565b60008083601f840112611f6857611f6761196f565b5b8235905067ffffffffffffffff811115611f8557611f84611974565b5b602083019150836020820283011115611fa157611fa0611979565b5b9250929050565b60008083601f840112611fbe57611fbd61196f565b5b8235905067ffffffffffffffff811115611fdb57611fda611974565b5b602083019150836020820283011115611ff757611ff6611979565b5b9250929050565b60008083601f8401126120145761201361196f565b5b8235905067ffffffffffffffff81111561203157612030611974565b5b60208301915083602082028301111561204d5761204c611979565b5b9250929050565b600080600080600080600080600060c08a8c031215612076576120756118d1565b5b60008a013567ffffffffffffffff811115612094576120936118d6565b5b6120a08c828d01611f52565b995099505060208a013567ffffffffffffffff8111156120c3576120c26118d6565b5b6120cf8c828d01611fa8565b975097505060408a013567ffffffffffffffff8111156120f2576120f16118d6565b5b6120fe8c828d01611ffe565b955095505060606121118c828d016119f5565b93505060806121228c828d016119f5565b92505060a06121338c828d0161195a565b9150509295985092959850929598565b60008060008060008060008060a0898b031215612163576121626118d1565b5b600089013567ffffffffffffffff811115612181576121806118d6565b5b61218d8b828c01611f52565b9850985050602089013567ffffffffffffffff8111156121b0576121af6118d6565b5b6121bc8b828c01611fa8565b9650965050604089013567ffffffffffffffff8111156121df576121de6118d6565b5b6121eb8b828c01611ffe565b945094505060606121fe8b828c016119f5565b925050608061220f8b828c016119f5565b9150509295985092959890939650565b600067ffffffffffffffff82111561223a57612239611c7b565b5b602082029050602081019050919050565b600061225e6122598461221f565b611cdb565b9050808382526020820190506020840283018581111561228157612280611979565b5b835b818110156122aa5780612296888261195a565b845260208401935050602081019050612283565b5050509392505050565b600082601f8301126122c9576122c861196f565b5b81356122d984826020860161224b565b91505092915050565b600080600080600060a086880312156122fe576122fd6118d1565b5b600061230c88828901611924565b955050602061231d88828901611924565b945050604086013567ffffffffffffffff81111561233e5761233d6118d6565b5b61234a888289016122b4565b935050606086013567ffffffffffffffff81111561236b5761236a6118d6565b5b612377888289016122b4565b925050608086013567ffffffffffffffff811115612398576123976118d6565b5b6123a488828901611d78565b9150509295509295909350565b6123ba81611939565b82525050565b60006020820190506123d560008301846123b1565b92915050565b600080600080600060a086880312156123f7576123f66118d1565b5b600061240588828901611924565b955050602061241688828901611924565b94505060406124278882890161195a565b93505060606124388882890161195a565b925050608086013567ffffffffffffffff811115612459576124586118d6565b5b61246588828901611d78565b9150509295509295909350565b61247b816118fb565b82525050565b600082825260208201905092915050565b600061249e8385612481565b93506124ab838584611d27565b6124b483611c6a565b840190509392505050565b600060a0820190506124d46000830189612472565b6124e160208301886123b1565b81810360408301526124f4818688612492565b90506125036060830185611b74565b61251060808301846123b1565b979650505050505050565b60006060820190506125306000830187612472565b61253d60208301866123b1565b8181036040830152612550818486612492565b905095945050505050565b60006020820190506125706000830184612472565b92915050565b600060408201905061258b60008301856123b1565b61259860208301846123b1565b9392505050565b600060a0820190506125b46000830189612472565b6125c160208301886123b1565b81810360408301526125d4818688612492565b90506125e36060830185611b74565b6125f06080830184611b74565b979650505050505050565b600060608201905061261060008301866123b1565b61261d60208301856123b1565b61262a60408301846123b1565b949350505050565b7f4e487b7100000000000000000000000000000000000000000000000000000000600052603260045260246000fd5b600060208284031215612677576126766118d1565b5b600061268584828501611924565b91505092915050565b600080fd5b600080fd5b600080fd5b600080833560016020038436030381126126ba576126b961268e565b5b80840192508235915067ffffffffffffffff8211156126dc576126db612693565b5b6020830192506001820236038313156126f8576126f7612698565b5b509250929050565b600082825260208201905092915050565b6000819050919050565b612724816118fb565b82525050565b6000612736838361271b565b60208301905092915050565b60006127516020840184611924565b905092915050565b6000602082019050919050565b60006127728385612700565b935061277d82612711565b8060005b858110156127b6576127938284612742565b61279d888261272a565b97506127a883612759565b925050600181019050612781565b5085925050509392505050565b600082825260208201905092915050565b600080fd5b82818337505050565b60006127ee83856127c3565b93507f07ffffffffffffffffffffffffffffffffffffffffffffffffffffffffffffff831115612821576128206127d4565b5b6020830292506128328385846127d9565b82840190509392505050565b600082825260208201905092915050565b6000819050919050565b600082825260208201905092915050565b60006128768385612859565b9350612883838584611d27565b61288c83611c6a565b840190509392505050565b60006128a484848461286a565b90509392505050565b600080fd5b600080fd5b600080fd5b600080833560016020038436030381126128d9576128d86128b7565b5b83810192508235915060208301925067ffffffffffffffff821115612901576129006128ad565b5b600182023603831315612917576129166128b2565b5b509250929050565b6000602082019050919050565b6000612938838561283e565b93508360208402850161294a8461284f565b8060005b8781101561299057848403895261296582846128bc565b612970868284612897565b955061297b8461291f565b935060208b019a50505060018101905061294e565b50829750879450505050509392505050565b600060a08201905081810360008301526129bd818a8c612766565b905081810360208301526129d281888a6127e2565b905081810360408301526129e781868861292c565b90506129f66060830185611b74565b612a036080830184611b74565b9998505050505050505050565b6000604082019050612a256000830185611b74565b612a326020830184611b74565b9392505050565b7f4e487b7100000000000000000000000000000000000000000000000000000000600052601160045260246000fd5b6000612a7382611939565b9150612a7e83611939565b9250828201905080821115612a9657612a95612a39565b5b92915050565b6000604082019050612ab16000830185612472565b612abe6020830184611b74565b9392505050565b600081905092915050565b6000612adc8385612ac5565b9350612ae9838584611d27565b82840190509392505050565b6000612b02828486612ad0565b9150819050939250505056fea2646970667358221220296ffaf7cab53371348341e0f2ea1decf67b31f9225a337fe558595c9c4ca98f64736f6c63430008180033",
  "linkReferences": {},
  "deployedLinkReferences": {}
}